:020000040800F2
:1000000000000220E1130108DF130108DD130108DD
:10001000DD130108DD130108DD13010800000000F5
:10002000000000000000000000000000DF130108D5
:10003000DF13010800000000DF1301080D1B00089A
:10004000DD130108DD130108DD130108DD130108CC
:10005000DD130108DD130108DD130108DD130108BC
:10006000DD130108DD130108DD130108DD130108AC
:10007000DD130108DD130108DD130108DD1301089C
:10008000DD130108DD1301083D090008DD13010837
:10009000DD130108DD130108DD130108DD1301087C
:1000A000DD130108DD200008DD130108052100082B
:1000B000DD130108DD130108DD13010891110008AB
:1000C000BD110008E911000815120008DD13010830
:1000D000DD130108E11D0008DD130108DD1301082F
:1000E000DD130108DD130108DD130108DD1301082C
:1000F000DD130108DD130108DD130108DD1301081C
:10010000DD130108DD130108DD130108DD1301080B
:10011000591E0008DD130108DD130108DD13010875
:10012000E5180008DD130108DD130108DD130108DF
:10013000DD130108DD130108DD130108DD130108DB
:10014000DD130108DD130108DD130108DD130108CB
:10015000011A0008DD130108DD130108DD13010891
:10016000DD130108DD130108DD130108DD130108AB
:10017000DD130108DD130108DD130108DD1301089B
:10018000DD130108DD130108DD130108DD1301088B
:10019000DD130108DD130108DD130108DD1301087B
:1001A000DD130108DD130108DD130108014B1860A0
:1001B000004700BF74370020024B00221A6000F095
:1001C00085BA00BF7437002038B5394C394DD4EDAD
:1001D000037A2DED088BD4ED028AD4ED01AA94EDBB
:1001E000008A95ED00AA95ED01BAE7EEA0AAA8EE67
:1001F000A08A60EEA09AA0EEAA8A29EEA07AF5EE77
:10020000006A27EE206AE7EEA08AA6EE268AB0EE04
:10021000009AF6EE006AABEE20AAE7EE26AAE7EE19
:10022000268A38EE099A77EEA99AF0EEC97A17EE87
:10023000900AF0EE40BA85ED00AA84ED008AC4ED84
:1002400001AAC4ED028AC4ED039A16F055FF16A365
:10025000D3E9002317F034FA18B388EE097A88EE50
:10026000899AF0EE697AEAEEC97A7BEECABAC4EDF1
:10027000037AF7EE007AE8EE498A77EEC77AA7EEBE
:100280002BAAA9EE2BBA28EE278A6AEEA77A85ED6B
:1002900000AA85ED01BAC4ED028A84ED008AC4ED9E
:1002A000017ABDEC088B38BDF168E388B5F8E43E0F
:1002B000883700207C37002030B5104C034600F111
:1002C000100518685968224603C20833AB42144629
:1002D000F7D10B4B012283F8F8201A8822F0C602CE
:1002E0001A80B3F8142122F0C602A3F8142193F85F
:1002F000702122F00A0283F8702130BD0C430020E7
:1003000024420020054B0A685A644A689A648A6845
:10031000DA64CA681A6508221A707047A437002088
:1003200010B51B48037814465A0786B001D409F06B
:10033000E9FE2246174C1849684608F02BFF94F84E
:10034000A4315B0703D404F5D27009F0DBFE6A46E2
:1003500003A8124908F01EFF059816F0BBFE0AA379
:10036000D3E9002316F06AFD17F0B4F9039BC4F833
:100370007431049BC4F878310223C4F87C0184F8FA
:10038000703106B010BD00BF1F85EB51B89EC34051
:10039000A437002024420020C4370020E843002076
:1003A0007FB51E4B1E4ED3ED007A1E4BF8EEE77A5A
:1003B0006846CDED007AD3ED007A1B4B1B680293A3
:1003C0001A4BF8EEE77A1B78CDED017A8DF80C30F8
:1003D000FFF772FF9DE80F0006F1780585E80F0032
:1003E000134A9FED140ADFED140A4FF400733380B3
:1003F00002210023117053619361D3610F4A4FF0C2
:100400007E5182ED020A116082ED010AD1600C4A30
:100410001372FFF7D9FE04B070BD00BF1C000020AE
:1004200024420020B0000020383C002018000020AA
:10043000A437002000000000CDCCCC3D8837002040
:100440007C3700200000000030B5374CD4ED037A33
:100450002DED028BF8EEE77A89B017EE900A16F0D0
:100460004BFE2DA3D3E9002316F09AFE2CA3D3E96B
:10047000002316F0BFFF17F075F92569019007EE0C
:10048000905AF8EEE77A9FED298A17EE900A16F057
:1004900033FE21A3D3E9002316F082FE20A3D3E983
:1004A000002316F0A7FF17F05DF9D4ED057A02904E
:1004B000F8EEE77A2846C7EE887ACDED037A16F093
:1004C00009FE17A3D3E9002316F094FF0022184B6E
:1004D00016F0B4FC0022174B16F08CFF0022164BCE
:1004E00016F0ACFC17F01EF901A98DF81C0004A849
:1004F00009F082FBD4ED0A7AF8EEE77A04A8C7EE99
:10050000887ACDED067AFFF7D7FE0C4B01221A72DE
:1005100009B0BDEC028B30BD399D52A246DF913F40
:1005200000000000D0126341BC4A002000007A4461
:1005300000806640000018400000F03F7C3700203B
:100540002DE9F8432DED048BD0ED077A524F534B34
:10055000DFF86C911D783B687A68DFED518AB8EE60
:10056000E79AD0ED067A0646F8EEE79AD7F85801F2
:10057000B0FBF9F0B2FBF0F009FB030810F080FFCC
:10058000044610F085FF474AD7F85831DFED467A28
:10059000201AB3FBF9F41368B0FBF4F04044C31A1B
:1005A00008EE103AB8EE488A89EE289A106088EE74
:1005B000278AF0EE007AB4EEE78AF1EE10FAC9EE7F
:1005C000A89A0FDC18EE100A16F096FD30A3D3E9B6
:1005D000002317F057F8DFED357A002818BFB0EE8A
:1005E000678A01E0B0EE678AD6ED0A7A304C9FED5B
:1005F000310A237AF8EEE77A87EE800A6BB100239E
:1006000023722D4B00224FF07E51626019605A60B8
:100610009A6084ED000AD9600DE0F0EE480AFFF719
:10062000D3FD336C5B4207EE903AF8EEE77AC7EE03
:10063000A87AC4ED017A214B2268C3F88020C3ED6B
:100640001E9A83ED1F9A83F88450D6ED0F7A96EDAB
:100650000E7AD4ED016AF8EEE77AB8EEC77AC7EE03
:10066000A87A4FF400721A804022A3F81421C7EE32
:10067000288AF1EE666AC3ED548ABDEC048BC3EDA3
:10068000557AC3ED566ABDE8F88300BFAFF300802A
:100690007B14AE47E17A943FE43D0020180000202F
:1006A0000000C84278370020002474490AD7A33CD0
:1006B0007C37002000007A44883700202442002044
:1006C00040420F001046FFF73BBF000008B50D4841
:1006D000FFF76CFD0C4A0D4B53600D4B0021986ADF
:1006E000117090609A620B4A0B4850605869117003
:1006F00090605A61094A117009495160196A916004
:100700001A6208BDA103000898370020C50600083A
:10071000BC3B00203438002021030008283800208A
:100720000503000808B5044810F0B0F84FF4E06085
:10073000BDE8084010F0D0BE148A0108244B98424E
:1007400039D014D8A3F58053984234D005D8B0F1ED
:10075000804F30D0A3F5806317E01E4B98422AD01B
:1007600003F58063984226D0A3F500630DE01A4B91
:10077000984218D00CD8A3F5644398421BD003F5D7
:10078000604398420FD0A3F5644398421DD112E014
:10079000124B984207D003F58063984203D0A3F52B
:1007A0000063984211D10E4B1B6813F4604F0D4B40
:1007B000186808D170470A4B1B6813F4E05F0A4BB6
:1007C000186800D17047400070470020704700BF94
:1007D00000180040001000400004014000440140A7
:1007E000083802400833002004330020F7B51021F8
:1007F0004448454C00F051F940F6020010F0D0FD9D
:1008000000200FF019FF40F6880010F0C9FD2046C7
:1008100010F082FA00210A460B46204610F0C5FA75
:100820002046FFF78BFF3949B0FBF1F12046013933
:1008300010F0E0FA204642F2107110F0DDFA204686
:10084000202110F0CFFA204610F0C7FA072112201D
:1008500010F064FE02AE122010F048FE042306F8E9
:10086000043D2B4B012704F58C341F70294B0025C8
:1008700020461D605D609D60DD600FF0FBFE204640
:100880000FF0FDFE20460FF0FFFE20460FF001FFA7
:1008900020460FF003FF20460FF005FF20460FF023
:1008A00007FF20460FF009FF20460FF00BFF204600
:1008B0000FF00DFF0FF0D6FE20460FF0C7FE2046CA
:1008C0000FF00AFF20460FF039FF20460FF01EFF01
:1008D000204603210FF095FE2046394632460FF0A0
:1008E0001AFF20464FF410214FF440120FF0B3FED0
:1008F00020460FF09BFE084B1D70084B1D7003B087
:10090000F0BD00BF000002400008004080841E00CF
:100910005038002040380020513800205238002044
:10092000044B81F845201B78834284BF024B43F877
:1009300020107047503800204038002070B5174C08
:1009400020460FF0CEFE40B3236823F0040323605B
:100950000025134B1B78E9B28B421ED9114B53F87B
:100960002140C4B10131C9B20C480FF0BEFE94F869
:10097000443094F845200133DBB29A4298BF0023FB
:1009800004EB430122688E8880B288801044801B6B
:10099000206084F844300135DBE770BD0020014061
:1009A0005038002040380020214B98422FD011D8D9
:1009B000A3F54063984221D004D8A3F58063984200
:1009C00019D070471B4B98421BD003F580639842A7
:1009D0001AD07047184B98421FD004D8A3F58063F3
:1009E000984217D07047154B984219D003F5806391
:1009F000984218D070474FF4C06016E040F2016092
:100A000013E040F2026010E040F203600DE040F2BB
:100A100004600AE040F2056007E040F2066004E08E
:100A200040F2076001E04FF4C16010F0B9BC00BFB4
:100A3000001002400008024000180240001C024062
:100A400070B50C460546FFF7AFFF28462346012147
:100A50000022BDE8704010F03CB870B50C46054669
:100A6000FFF7A2FF0021284623460A46BDE8704052
:100A700010F02FB870B50C4605461646FFF794FFE8
:100A800028463146224610F05CF8284623460221CB
:100A90000022BDE8704010F01CB870B50C46054649
:100AA000FFF782FF2846234603210022BDE870405D
:100AB00010F00FB8C26A9369436A5969490507D5AE
:100AC0005188013189B25180596921F4806159619D
:100AD0005969C80507D59188013189B29180596952
:100AE00021F4807159615969890507D5D18801318F
:100AF00089B2D180596921F4007159615969080599
:100B000007D51189013189B21181596921F4006138
:100B100059615969C90407D55189013189B2518197
:100B2000596921F4805159615969480407D591895F
:100B3000013189B29181596921F480415961596922
:100B4000090407D5D189013189B2D1815A6922F4CA
:100B500000425A61704738B5446A002380F8233058
:100B600005464FF48071204610F047F820464FF4B8
:100B7000007110F042F84FF48061204610F041F807
:100B8000204610F052F8204610F045F8204610F0AC
:100B900016F820460FF0FFFF204610F006F801235C
:100BA00085F8223038BD0000F8B50D4D0D4F2B688B
:100BB000D5F858616A68B6FBF7F6B2FBF6F607FBA4
:100BC000036610F05DFC044610F062FCD5F8583165
:100BD000201AB3FBF7F4B0FBF4F03044F8BD00BFCB
:100BE000E43D002040420F0010B50D4C2046FFF7B9
:100BF000DBFE2046022100224FF4C0730FF069FF94
:100C0000012120460A464FF4C0730FF07FFF2046B3
:100C100004214FF4C072BDE810400FF092BF00BF36
:100C20000004024008B5124B984204D003F58063DB
:100C3000984204D008BDBDE80840FFF7D5BF0D4875
:100C4000FFF7B2FE0B48022100224FF440630FF081
:100C500040FF01210A4607484FF440630FF056FF5A
:100C6000044804214FF44062BDE808400FF069BF1A
:100C7000005400400004024038B545694FF48061DB
:100C8000ADB204460FF0BDFFE90703D520460021B1
:100C90000FF0A6FFAA0748BFA3696B0708D5204637
:100CA0000FF0A8FF20460021BDE838400FF098BFA4
:100CB00038BD0000074B984203D107484FF48071BC
:100CC00005E0064B984204D103484FF480610FF0D1
:100CD000F5BE704700540040000402400058004038
:100CE000074B984203D107484FF4807105E0064B4B
:100CF000984204D103484FF480610FF0DDBE704785
:100D0000005400400004024000580040038E1BB213
:100D1000142B70B50446456A59DD038E1BB2152BA2
:100D200026D128464FF400710FF06BFF28464FF490
:100D300080710FF066FF28460FF032FF284B9D426E
:100D400007D128484FF48071FFF77AFE25488021AB
:100D50000AE0254B9D4209D122484FF48061FFF7FC
:100D60006FFE20484FF40061FFF777FE284607E04A
:100D7000038E1BB21D2B09DC038EDB07284602D530
:100D8000FFF798FF23E0FFF7ABFF20E02846FFF7CF
:100D9000A7FF00262846FFF745FF28464FF40071BD
:100DA00084F8206084F8216084F822600FF025FF29
:100DB00028464FF480710FF020FF28460FF0EBFE1D
:100DC000E26A2686938901339BB2938170BD238E9C
:100DD0001BB2002BA1BF238E01339BB2238670BDB3
:100DE0000054004000040240005800402DE9F0414A
:100DF00090F8213090F82020446A9A4205460AD1A2
:100E0000FFF758FE2046FFF737FFEA6A53690133C0
:100E10005361002347E150F82360636913F45F4F87
:100E20000ED0032386F825300A2380F822300123D0
:100E30003370FFF73FFE2046FFF71EFF02235CE101
:100E400096F80080B8F1010F40F000817788012FFB
:100E500002D0022F31D060E063699BB2D90705D57B
:100E600020464FF480610FF0CCFE66E09A0712D561
:100E700020460FF0DAFE20460FF0CDFE72B6204677
:100E8000A3690FF097FE62B64FF4806120460FF021
:100E9000B4FE062307E1580640F1668120464FF470
:100EA00080610FF0AEFE2369DBB27371022386F816
:100EB0002530072385F8223066E1626992B2D107B6
:100EC0000BD520464FF480610FF09BFE20460FF0BB
:100ED0009DFE20460FF0A4FE2FE093070BD572B6BF
:100EE0002046A3690FF097FE20464FF480610FF073
:100EF00088FE62B639E0500740F1368120460FF097
:100F000059FE072385F822302369DBB27371236908
:100F1000DBB2B37186F825705BE063699BB213F0B6
:100F2000010212D020464FF480610FF06AFE204685
:100F30000FF07BFE20460FF069FE7178204641F0ED
:100F400001010FF04DFE0323ADE099070FD580F8A6
:100F50002320738890F82320033B9A4204DA20462A
:100F60004FF480610FF049FEA36905239BE058060A
:100F70003BD56268510538D595F82320FB1E9A426F
:100F80000CDA95F8233022693344D2B25A7195F8BD
:100F900023300133DBB285F823301CE095F82320A1
:100FA0007B1E9A4217DB20464FF480610FF029FE2A
:100FB00095F8237020460FF01DFEFFB2374478717C
:100FC00095F823300133DBB285F82330022386F80D
:100FD0002530012391E0738895F82320033B9A4242
:100FE00020464FF480617CDA2CE05A0740F1BC8047
:100FF00072B620460FF00FFE95F8237020460FF0D2
:10100000F9FDFFB23744787195F823300133DBB234
:1010100085F8233020460FF0CDFD62B6072385F812
:10102000223095F8237020460FF0E4FDFFB23E44D5
:101030004FF48061707195F823300133DBB285F88D
:1010400023302046BDE8F0410FF0D7BD626992B26F
:10105000D3070AD520464FF480610FF0D2FD204619
:1010600071780FF0BDFD02231DE097071FD5A3691E
:10107000717920460FF0B4FD3379012B05D9B17990
:1010800020460FF0ADFD022300E0012385F8233058
:1010900095F8233032799A4204D920464FF4806182
:1010A0000FF0ABFD042385F82230BDE8F081100677
:1010B0001BD56368590518D595F82330334420466D
:1010C00059790FF08DFD95F823300133DBB285F8A7
:1010D000233095F8233032799A4257D820464FF47E
:1010E0008061BDE8F0410FF08CBD53073CD5022371
:1010F000B8F1000F01D186F825303278022A0CD1E0
:1011000001233370204685F822300FF04EFD204633
:101110000021BDE8F0410FF063BD022B06D120464F
:101120000FF048FD204600210FF05AFD95F82130C0
:101130000133DBB2072B4FF0000294BF85F821305A
:1011400085F8212085F8222095F8203095F8212077
:101150009A4204D14FF6FF732B86BDE8F0812846F2
:10116000BDE8F041FFF7F7BC0A23EA6A85F82230B0
:101170000327012386F825703370138A01339BB24D
:1011800013822046FFF778FD3B46B6E7BDE8F081C5
:1011900038B5094C656A4FF4807128460FF031FD6F
:1011A000002320462386FFF721FE28464FF4807156
:1011B000BDE838400FF021BD443D002038B5094C52
:1011C000656A4FF4007128460FF01BFD002320468E
:1011D0002386FFF70BFE28464FF40071BDE8384028
:1011E0000FF00BBD443D002038B5094C656A4FF443
:1011F000807128460FF005FD002320462386FFF767
:10120000F5FD28464FF48071BDE838400FF0F5BC7D
:101210007C3D002038B5094C656A4FF400712846C2
:101220000FF0EFFC002320462386FFF7DFFD284662
:101230004FF40071BDE838400FF0DFBC7C3D00206A
:1012400010B50A4CFFF7B0FC2368C01AB0F5FA6F6E
:101250000AD9FFF7A9FC20600548FFF757FD0548AC
:10126000BDE81040FFF752BD10BD00BF343900206B
:10127000443D00207C3D002010B590F8203090F8CF
:1012800021400133DBB2082B28BF00239C4209D147
:10129000C26A138801339BB21380032381F825307F
:1012A000002010BD002481F8254072B690F820403F
:1012B00040F8241080F8203090F822300BB9FFF766
:1012C0004AFC62B6012010BD90F82220436A2AB978
:1012D000986980F00200C0F340007047002070471A
:1012E00037B505460C46FFF7EFFF002846D040F61D
:1012F000B8339C42B8BF1C46214B6D6A1B684FF443
:101300007A714FF4FA6294FBF1F4B3FBF2F3B3FB9E
:10131000F4F30093009B1B4991FBF4F4132BDCBF07
:1013200014230093009A40F6FE739A42C4BF40F61D
:10133000FF730093A82194FBF1F40194019B092B06
:10134000DCBF0A230193019B1E2BC4BF1F23019303
:1013500072B628460FF024FC28462A210FF039FCEB
:101360000099284689B20FF03DFC0199284689B2C0
:101370000FF03EFC28460FF00EFC62B603B030BD05
:101380000433002040420F0070B51F4B1F4D204E0C
:10139000EB6200244FF6FF7204211F202A866E6242
:1013A0001C80AC625C809C80DC801C815C819C81A8
:1013B000DC811C825C619C6110F0B0F81F2010F091
:1013C00095F80521202010F0A9F8202010F08EF8C3
:1013D00040F615000FF0E4FFFFF706FC40F2154061
:1013E0000FF0EBFF30460FF0D6FB304621460FF0F2
:1013F000EBFB30464FF480710FF0FFFB28460549A8
:10140000BDE87040FFF76CBF54380020443D002019
:1014100000540040400D030070B5204B204D214E7C
:10142000EB6200244FF6FF72042121202A866E62AF
:101430001C80AC625C809C80DC801C815C819C8117
:10144000DC811C825C619C6110F068F8212010F046
:101450004DF80521222010F061F8222010F046F806
:1014600040F616000FF09CFF3046FFF7DBFB40F222
:1014700016400FF0A2FF30460FF08DFB304621469C
:101480000FF0A2FB30464FF480710FF0B6FB2846F8
:101490000549BDE87040FFF723BF00BFC4380020F6
:1014A0007C3D002000580040E093040010B5C36A62
:1014B0000446187F10F026F8E36ABDE81040587F14
:1014C00010F020B82DE9F0471446054688B29A4638
:1014D000DDF82090BDF824809DF828609DF82C70E0
:1014E0000FF05EFF284621460FF01CFA28462146E1
:1014F00052460FF0C6FA284621464A460FF0C9FA6E
:101500002846214642460FF0D1FA2846214636B9F0
:1015100032460FF065FA28462146324607E04FF47E
:1015200000620FF05DFA284621464FF400520FF09A
:101530004BFA284621461FB1BDE8F0470FF05CBAD0
:10154000BDE8F0470FF061BA10B5C36A0446052143
:10155000187F0FF0E3FFE36A187F0FF0C7FFE36A1D
:101560000521587F0FF0DAFFE36ABDE81040587F8D
:101570000FF0BCBF8A7CF0B5012391F810E00B7727
:10158000C46A80F822304F7C94F83CC006460D4671
:10159000C87B897BD30043EA8E130B4343EA87035E
:1015A00043EA4003DBB29C4585B03FD0BEF1000F5B
:1015B00001D04FF4006EC4F834E007B18027A76370
:1015C00000B10120206301B10221E162072A15D890
:1015D000DFE802F00406080A0C0E101200220CE0EC
:1015E00008220AE0102208E0182206E0202204E087
:1015F000282202E0302200E03822A26284F83C3047
:10160000B06A0FF04CFB636B0093A36B019304F182
:1016100028010EC9B06A0FF069FBB06A0FF044FBF5
:10162000B06A0FF04AFBB06A0FF034FB6B7B012B02
:1016300006D82B7B23B943484FF400710FF03EFAD4
:101640006B690BB1284698472B89297C227C63B9AA
:1016500004F1220000906889019002910393A06830
:10166000E1686368FFF72EFF10E0286802918DE8BB
:101670000900012703976368A068E168FFF722FF6C
:101680006A892B899A4288BF84F82470A068217CDB
:1016900062690FF0C3F9A068217C00220FF077F98E
:1016A000217CA0684FF440320FF082F96B89297CCD
:1016B000627C63B904F11E000090288901900291B8
:1016C0000393A068E1686368FFF7FCFE10E06868B8
:1016D00002918DE80900012703976368A068E1681B
:1016E000FFF7F0FE2A896B899A4288BF84F8207040
:1016F000A068617CA2690FF091F9A068617C40222A
:101700000FF045F94FF48032A068617C0FF050F97A
:10171000A068217C0FF08AF9A068617C0FF086F93F
:10172000A068217C0FF09BF9A068617C0FF097F90D
:10173000B06A0FF0D1FAB06A05B0BDE8F0400FF022
:10174000C1BA00BF0004024010B5064C4FF400714E
:101750002046FFF775F920464FF40071BDE81040B0
:101760000FF0AAB90004024070B590F8205090F82C
:1017700021300135EDB2082D28BF0025AB420446CB
:101780000E4601D08B681BB903233377002070BD50
:1017900000230B77FFF78AFE94F8203044F823608B
:1017A00094F8223084F820504BB994F8313033B992
:1017B00094F82130204654F82310FFF7DBFE204632
:1017C000FFF7C2FE012070BD2DE9F74F3E4C3F4BA5
:1017D00063603F4BA36040F21663E3604FF0C06369
:1017E0006361A3613823237744233A4FDFF8F08005
:1017F000637728230025384EA3624FF005094FF088
:10180000020A4FF0010B2B2340F68C0084F83C3089
:10181000257484F81190E58384F82050658484F859
:101820002450C4F82CA0C4F830B06563A563BE6230
:10183000FC6287F8205087F8215087F822500FF07B
:10184000AFFD40464A462B464021FFF713F940467C
:101850004A465B468021FFF70DF940464A465B4603
:101860002021FFF707F940462946524680230FF012
:101870004DF929465246202340460FF047F930469D
:101880000FF0D8F930460FF00AFA144B1D60636B65
:101890000093A36B019304F128010EC930460FF0A9
:1018A00025FA30460FF000FA30460FF006FAA0890C
:1018B0000FF076FD30460FF0EDF9384603B0BDE885
:1018C000F04FFFF741BE00BF383900200C30014017
:1018D00000640240B03D0020003001401C30014057
:1018E00000000240424B1B689B0648BF414AF0B5CE
:1018F00048BF1368404E44BF43F020031360F46AAE
:1019000096F82130217CA06856F8235085B00FF05E
:101910009DF8B06A0FF0E5F9A068217C0FF0A8F8F7
:1019200094F824303746002B31D0002704F12203ED
:1019300084F82470227C009329896B895B1A9BB2FE
:1019400001932B7C029303976368A068E168FFF71B
:10195000B9FDA068217C62690FF060F8A068217C65
:101960003A460FF014F84FF40032A068217C0FF0D3
:101970001FF8A068217C0FF059F8A068217C0FF0B7
:101980006EF8B06A05B0BDE8F0400FF0A5B90223CB
:101990002B77AB690BB1284698476B7B13F0FD0F93
:1019A00006D12B7B23B915484FF400710FF084F852
:1019B00097F82130104A10480133DBB2072B88BF5B
:1019C000002382F8213097F8213097F820209A429E
:1019D00002D090F8312022B1002387F8223005B0E0
:1019E000F0BD50F8231005B0BDE8F040FFF7C2BDD0
:1019F0000064024008640240B03D00200004024040
:101A00007FB5294B294D1B68EC6A1B0541BF284A4D
:101A1000136843F40063136095F82130617CA0687B
:101A200055F823600FF012F8A86A0FF050F9A0687B
:101A3000617C0FF01DF894F82030002B31D000218C
:101A400004F11E0384F82010627C009370893389AE
:101A50001B1A9BB20193337C029303916368A068C5
:101A6000E168FFF72FFDA068617CA2690EF0D6FF48
:101A7000A068617C40220EF08AFF4FF48032A0689B
:101A8000617C0EF095FFA068617C0EF0CFFFA0682E
:101A9000617C0EF0E4FFA86A04B0BDE870400FF06E
:101AA00011B904B070BD00BF04640240B03D002015
:101AB0000C64024010B5114C04200FF0F1FC94EDC1
:101AC000537ADFED0F7A0F4BC4F8583167EE277A5F
:101AD00017EE900A15F010FB00220B4B15F0AEF933
:101AE00015F020FEC4F8540101380FF0C1FC0FF0CE
:101AF000E3FCBDE810400FF0E7BC00BFE43D002070
:101B0000A037204D007A030A0000E03F1A4B9A6884
:101B1000013270B59A605968D3F854210A445A606A
:101B20005968D3F8582191421C4609D35B68134881
:101B30009B1A636023680121013323600EF0C1FF0B
:101B40000D4D00262B7B83B1A268AB699A420CD362
:101B5000EA691344084AAB61142303FB06230122FC
:101B60001A752B690BB1F0B298470136102E05F1AA
:101B70001405E7D170BD00BFE43D0020000802401D
:101B800070B50446D0F80C01C36819061CD503686B
:101B90001A0619D5B4F80631B4F804219A420CD0CB
:101BA000234493F884100FF0E9FBB4F806310133B5
:101BB00003F07F03A4F8063106E0002384F808311F
:101BC000C36823F08003C360D4F80C01C3689B068C
:101BD0001AD503689E0617D503681D0714D4036839
:101BE000590711D403689A070ED4B4F880600FF037
:101BF000C9FB751CB4F88230A05505F07F05AB42D7
:101C000030D0A4F8805070BDC3689B060AD5036825
:101C10001E0707D50FF0B6FBB4F8243101339BB291
:101C2000A4F82431D4F80C01C3689D060AD50368D2
:101C3000590707D50FF0A6FBB4F8263101339BB244
:101C4000A4F82631D4F80C01C3689A060AD50368B3
:101C50009B0707D50FF096FBB4F8283101339BB2F0
:101C6000A4F8283170BD10B50446C0F81011D0F8A2
:101C70000C010FF045FBD4F80C01C36823F01003EE
:101C8000C360036923F040030361C36843F020038A
:101C9000C360BDE810400FF06CBB022B70B504466A
:101CA0000D461646D0F80C0102D14FF4806103E0D6
:101CB000012B09D14FF4C0610FF049FB072DD4F877
:101CC0000C0106D0092105E000210FF040FBD4F8FB
:101CD0000C0108210FF02CFB022ED4F80C010CBFD4
:101CE0004FF400510021BDE870400FF02ABB0029DD
:101CF00038B508BF002104461D4618BF08210AB1A7
:101D000041F00401D4F80C010FF027FBD4F80C01CA
:101D100015B14FF4407100E02946BDE838400FF09E
:101D200022BBB0F8042138B50446531CB0F80601B4
:101D300003F07F03984219D0D4F80C01C56825F050
:101D40008005C56094F808512DB1224482F88410B2
:101D5000A4F8043104E0012384F808310FF00EFBED
:101D6000D4F80C21D36843F08003D36038BD000061
:101D700010B5174C204608F0A3FF164BC4F80C31E1
:101D800040F684000FF00CFB13484021072201238A
:101D9000FEF770FE4FF48061072200230F48FEF724
:101DA00069FE25200FF0A2FB012120460A460023F0
:101DB000FFF79DFF2046082101220023FFF76DFF5A
:101DC00020464FF4E131BDE81040FFF74CBF00BFA3
:101DD000403F00200010014000040240000002408B
:101DE0000148FFF7CDBE00BF403F002038B5174C7B
:101DF000174D204608F064FF164BC4F80C3140F62E
:101E000013000FF0CDFA012128460B460822FEF7F9
:101E100031FE2846022108220023FEF72BFE342043
:101E20000FF064FB012120460A460023FFF75FFF05
:101E30002046082100230122FFF72FFF20464FF400
:101E40001641BDE83840FFF70EBF00BF84400020B8
:101E500000000240004C00400148FFF791BE00BF67
:101E60008440002038B54FF400600FF099FA1C4C04
:101E70001C4D40F601000FF093FA012120460B465D
:101E80000222FEF7F7FD0122284613460421FEF741
:101E9000F1FD2046202102220123FEF7EBFD204622
:101EA000102102220123FEF7E5FD01222046134600
:101EB0000821FEF7DFFD0122134628464FF40041BA
:101EC000FEF7D8FD4FF080402821072200F064F88B
:101ED000054828210722BDE8384000F05DB800BF62
:101EE00000040240000002400004004038B5124CDB
:101EF000124D2268284604210FF048F962684FF01D
:101F0000804004210FF042F92846A26802210FF018
:101F10003DF92846E26800210FF038F922694FF0B8
:101F2000804002210FF032F962694FF080400021B9
:101F3000BDE838400FF02AB978390020000400408D
:101F400038B504460D460FF0E7F8124B9C4207D017
:101F5000A3F594339C4203D0204629460EF04EFF51
:101F6000204629460FF04AF8204629460EF060FF29
:101F70002046294606220EF075FF204629460FF01E
:101F800057F8204629460FF08DF82046BDE8384026
:101F90000FF00CB900400140F8B504460F46154655
:101FA0000EF0BAFE00210A460B4620460EF0FDFE5A
:101FB0002046FEF7C3FB194EB0FBF6F1204601396F
:101FC0000EF018FF20460EF0FEFE20460EF000FF39
:101FD000B6FBF7F1204601390EF00EFFE80703D5F6
:101FE00020460021FFF7ACFFA90703D520460221B8
:101FF000FFF7A6FF6A0703D520460421FFF7A0FFDD
:102000002B0703D520460621FFF79AFF20460EF046
:10201000D5FE2046BDE8F8400EF0DFBE40420F007E
:1020200010B54FF40860294C0FF0BAF94FF48071E5
:10203000012200232648FEF71DFD20460EF06CFE0F
:1020400000210B460A4620460EF0AFFE4FF6FF7108
:1020500020460EF0D1FE2046FEF770FB1D49B0FB76
:10206000F1F1204601390EF0C5FE00210A46204656
:102070000FF032F92046002101220FF0F5F800217F
:102080000A4620460FF0C8F800210A4620460FF005
:102090009BF803211B200FF041FA1B200FF026FABA
:1020A000032119200FF03AFA19200FF01FFA2046E9
:1020B00003210EF071FE204600210FF006F92046A4
:1020C0000EF08BFE044B00221A6010BD0000014090
:1020D00000000240808D5B0098390020064B1B6891
:1020E000DB0708D5054A06481368012103F580334C
:1020F00013600EF055BE7047100001409839002063
:102100000000014008B5094B1B689B070DD5084826
:1021100002210EF045FE06480FF054F8054B1B68EF
:102120001844BDE808400EF02BBA08BD100001406D
:10213000000001409839002008B5C0220348044936
:1021400009F0E0F9034B0A221A8008BDA0390020EB
:10215000443D00209C3900200E4B93F85430C3B10D
:102160000D490B8843B10D4A92F8520020B1013B52
:102170000B80002382F85230094A138801339BB246
:10218000132B01D81380704700230448138009F0F3
:1021900080BA7047043A00209C390020A039002002
:1021A000003A002070B51A4C2DED028B204609F044
:1021B00002FA94F8523043B3164B1B882BBB164BD4
:1021C00094ED168A1D68BBEECF8A1E464DB12B7862
:1021D000012B04D86B68012018EE101A9847AD68DF
:1021E000F4E7B4F95630F56808EE103ABAEECE8A44
:1021F0004DB12B78012B04D86B68012018EE101A12
:102200009847AD68F4E784F85250BDEC028B70BD7E
:10221000A03900209C390020BC3B002001207047E1
:1022200010B50C4C0C49D222204609F092FA092331
:1022300084F84C30032384F84D30022384F84E3068
:1022400084F84F300123054A84F8563084F855301D
:10225000A26510BD043A0020443D00201D22000864
:10226000034890F854300BB109F0A0BA09F086BACF
:10227000043A00202DE9F0472F4C2768D4F85891F4
:10228000D4F804800FF0FCF806460FF001F9D4F8FA
:1022900058512A4C8246204609F0A0FA94F82A3078
:1022A000002B47D0264BB9FBF3F9B8FBF9F803FB39
:1022B0000787B5FBF3F5CAEB0606B6FBF5F6BD19C5
:1022C000204EB4F932303366B4F934305B42736671
:1022D000B4F936305B42B366B4F92C30F366B4F926
:1022E0002E305B423367B4F930305B42736730465F
:1022F000002384F82A300DF00BFA30460DF029FA4D
:10230000114B1C691E464CB12378012B04D863681D
:102310000C4A012029469847A468F4E774694CB137
:102320002378012B04D86368084A0120294698477E
:10233000A468F4E7BDE8F087E43D0020043A0020FB
:1023400040420F00D84C0020BC3B0020E44C002051
:102350002DE9FF4100230393364B93F844321B07CA
:1023600004460D4601D409F0C7FE276A2368D4F855
:102370000480012612218DF80B60384698472946C3
:1023800002463846C04700284DD0276A2368D4F853
:102390001C80384612219847294602463846C047D5
:1023A0002369206A2946122298470DF10B030096F3
:1023B0000193A668206A294602220023B0473623EB
:1023C00000931D4B0193E668206A294602220023F0
:1023D000B0474FF00408194B0193A768206ACDF865
:1023E000008029460A220023B84703AF206AA66866
:1023F000CDF8008029460A2200230197B047206AC1
:10240000A668CDF8008029460A2200230197B0472C
:102410000023CDF800800197A668206A29460A2289
:10242000B047636900E0A369206A2946984704B071
:10243000BDE8F08124420020B47D010880440020E2
:102440002DE9FF41314B1A8812F4007F04460D46F6
:102450001E4601D109F0A0FAB6F814311B0601D4CA
:1024600009F0A0FC276A2368D4F8048001260A2119
:102470008DF80F6038469847294602463846C047CF
:1024800000283BD0276A2368D4F81C8038460A21EC
:102490009847294602463846C0472369206ADFF834
:1024A000748029460A2298470DF10F030096019384
:1024B000A668206A294602220023B0472A230093F7
:1024C000134B0193E668206A294602220023042761
:1024D000B047206AA668009729460A220023CDF853
:1024E0000480B04708F1E406019600230097A6682F
:1024F000206A29460A22B047636900E0A369206A7E
:102500002946984704B0BDE8F08100BF244200206E
:10251000BD7D0108A4420020464BDFED476AD3EDA4
:10252000007A2DE9F041FCEEE77A86B017EE903A9A
:10253000ADF80A30414B076A1B88D0F8048007EEDB
:10254000903A3F4BF8EE677AB2EE047AC7EE877A9C
:1025500001260D46044610218DF8096093ED007A9E
:10256000CDED037AB8EEC77A036887EE267A38464F
:1025700067EE877A8DED047ACDED057A9847294686
:1025800002463846C04700284CD0276A2368D4F852
:102590001C80384610219847294602463846C047D5
:1025A0002369206A2946102298470DF109030096F5
:1025B0000193A668206A294602220023B0472523FA
:1025C0000093204B0193E668206A294602220023EB
:1025D000B047042603AB00960193A768206A2946FA
:1025E0000A220023B84704AB00960193A768206A2B
:1025F00029460A220023B847022300930DF10A035B
:1026000032460193206AA76829460023B84705ABE4
:1026100000960193A668206A002329460A22B04743
:10262000636900E0A369206A2946984706B0BDE8BF
:10263000F08100BF8C3A002000007A447E3A0020EE
:10264000883A0020C77D01082DE9F043464E3378D3
:102650000B2B84BF00233370337885B004460D46BE
:102660000B2B2AD8DFE803F00608111315171A1DE3
:102670001F2123273D4B00E03D4B1B7807EE903A8E
:10268000F8EE677ACDED037A19E03A4B07E03A4B62
:1026900005E03A4B03E03A4B1B88EFE7394B1B68E8
:1026A0000CE0394BE9E7394BE7E7394BE5E7394BC4
:1026B000B3F8F830E2E7384BDFE700230393276AEB
:1026C0002368D4F804904FF0010807218DF80B809F
:1026D00038469847294602463846C847002839D028
:1026E000276A2368D4F81C90384607219847294662
:1026F00002463846C8472369206A29460722984778
:102700000DF10B030193A768206ACDF800802946DC
:1027100002220023B8471F230093204B0193E76850
:10272000206A294602220023B847A768206ACDF80C
:1027300000802946022200230196B8470423009313
:1027400003AB0193A768206A002329460A22B847F1
:10275000636900E0A369206A29469847337801330A
:10276000337005B0BDE8F0837A3A0020783A002053
:102770001A3B00205C3C0020983C0020503C00208C
:10278000843A0020683C0020823A00207C3A0020F5
:10279000813A0020BC4A0020B33B0020CE7D0108D6
:1027A0002DE9FF41076A444B039301260D46D0F8FB
:1027B000048003688DF80B60222104463846984750
:1027C000294602463846C04700286ED0276A23684B
:1027D000D4F81C80384622219847294602463846BC
:1027E000C0472369206A2946222298470DF10B032E
:1027F00000960193A668206A294602220023B0476A
:10280000102300932D4B0193E668206A294602228B
:102810000023B04704262A4B00960193A768206A3C
:1028200029460A220023B847264B00960193A76841
:10283000206A29460A220023B847234B00960193B9
:10284000A768206A29460A220023B8471F4B009632
:102850000193A768206A29460A220023B8471C4B27
:1028600000960193A768206A29460A220023B847E8
:10287000184B00960193A768206A29460A22002374
:10288000B847154B00960193206AA76829460A228B
:102890000023B84703AB00960193A668206A002383
:1028A00029460A22B047636900E0A369206A2946E5
:1028B000984704B0BDE8F08100007041D77D010861
:1028C000143D0020403D0020183D0020443C0020E5
:1028D000483C00202C3B0020503B00202DE9FF41CC
:1028E0004C4B066A1B6847680A2293FBF2F3ADF86B
:1028F0000C30494BD3ED007AFDEEE77A4FF001083A
:1029000017EE903A0D46ADF80E30112103688DF8A0
:102910000B80044630469847294602463046B84761
:10292000002870D0266A2368E7693046112198474D
:10293000294602463046B8472369206A29461122B3
:1029400098470DF10B030193A668206ACDF800802B
:10295000294602220023B0470C2300932F4B0193FA
:10296000E668206A294602220023B04702262C4B43
:1029700000960193A768206A294605220023B847DC
:10298000284B00960193A768206A29460422002359
:10299000B84703AB00960193A768206A2946052231
:1029A0000023B847204B00960193A768206A294668
:1029B00004220023B8471D4B01933246A768206AC2
:1029C000CDF8008029460023B847194B00960193A3
:1029D000A768206A294604220023B847154B0096B1
:1029E0000193206AA768294604220023B8470DF105
:1029F0000E0300960193A668206A0023294605224B
:102A0000B047636900E0A369206A2946984704B08B
:102A1000BDE8F081883A00208C3A0020DF7D010873
:102A2000543B00207E3A0020843A0020813A002066
:102A3000E84D0020E44D00202DE9FF41076AD0F861
:102A40000480036801260D46044608218DF80F60B6
:102A500038469847294602463846C04700285BD08A
:102A6000276A2368D4F81C803846082198472946ED
:102A700002463846C0472369206A294608229847FB
:102A80000DF10F0300960193A768206A29460222E0
:102A90000023B8470B230093234B0193E768206A78
:102AA000294602220023B847204B00960193A768CD
:102AB000206A294602220023B8471D4B0096019345
:102AC000A768206A294602220023B847194B0096BE
:102AD0000193A768206A294602220023B847164BB3
:102AE00000960193A768206A294602220023B8476E
:102AF000124B00960193206AA76829460222002300
:102B0000B8470F4B00960193A668206A0023294618
:102B10000222B047636900E0A369206A294698470A
:102B200004B0BDE8F08100BFE37D0108823A0020D7
:102B3000303B0020913A0020B43C0020903A002025
:102B4000803A00202DE9FF41076AD0F80480102365
:102B500001260D468DF80E30132103688DF80F60A5
:102B6000044638469847294602463846C04700285A
:102B700042D09DF80E10276A2368D4F81C800331D8
:102B80003846C9B29847294602463846C0479DF89C
:102B90000E202369206A03322946D2B298470DF1EC
:102BA0000F0300960193A768206A2946022200239A
:102BB000B8474FF00208144B0193206AE768CDF83C
:102BC0000080294642460023B84700220DF10E033B
:102BD00000960193206AA76813462946B8479DF8D6
:102BE0000E300093094B0193206A33462946424632
:102BF000A668B047636900E0A369206A2946984740
:102C000004B0BDE8F08100BFED7D0108F37D01084F
:102C10002DE9FF41076AD0F80480172301260D46ED
:102C20008DF80E301E2103688DF80F60044638467B
:102C30009847294602463846C047002849D09DF8A3
:102C40000E10276A2368D4F81C8007313846C9B2B1
:102C50009847294602463846C0479DF80E2023690A
:102C6000206A07322946D2B298470DF10F0301932B
:102C7000A768206A0096294602220023B847184B0D
:102C80000193E768206A0096294602220023B8478C
:102C900004230093134B0193A768206A2946062258
:102CA0000023B84700220DF10E030193A768206AA4
:102CB000009613462946B8479DF80E3000930A4BFC
:102CC0000193A768206A334629463246B8476369AC
:102CD00000E0A369206A2946984704B0BDE8F08166
:102CE000047E010808000020167E01082DE9FF413E
:102CF0000446334890F8A431DB060D4603D400F5B2
:102D0000D27007F02FFC276A2368D4F804800126CC
:102D10000E218DF80F6038469847294602463846FE
:102D2000C047002845D0276A2368D4F81C8038465D
:102D30000E219847294602463846C0472369206A33
:102D4000DFF8848029460E2298470DF10F03009684
:102D50000193A668206A294602220023B047062371
:102D60000093184B01930427E668206A2946022243
:102D70000023B047206AA668009729460A2200234C
:102D8000CDF80480B04708F108030193206AA668D3
:102D9000009729460A220023B04708EB0706019650
:102DA00000230097A668206A29460A22B047636973
:102DB00000E0A369206A2946984704B0BDE8F08185
:102DC000244200202E7E01081C44002001480249B4
:102DD000FFF732BE6C4900206C400020284B0222D5
:102DE00010B51A70274A284C00231370274A137015
:102DF000274A1380274A1370274A1370274A204610
:102E00004FF480511370FDF71BFE2046244C4FF405
:102E100080510DF053FE20462249234A0AF0D2FE8B
:102E200020462249224A0AF0CDFE20462149224A64
:102E30000AF0C8FE20462149214A0AF0C3FE204676
:102E40002049214A0AF0BEFE20462049204A0AF0C5
:102E5000B9FE20461F49204A0AF0B4FE20461F4909
:102E60001F4A0AF0AFFE20461E491F4A0AF0AAFE7A
:102E700020461E491E4ABDE810400AF0A3BE00BF0E
:102E8000823A0020813A0020000402407C3A00206F
:102E9000843A0020913A0020793A00207B3A0020C1
:102EA000F8320020047E0108112C0008ED7D010895
:102EB000452B0008E37D0108392A00082E7E010811
:102EC000ED2C0008BD7D010841240008B47D0108F7
:102ED00051230008DF7D0108DD280008C77D0108B7
:102EE00019250008CE7D010849260008D77D010874
:102EF000A12700082DE9F043314C85B0D4F82861B2
:102F0000D4F80831D4F80C91012580460F468DF88D
:102F10000F500721304698472A4902463046C84795
:102F2000002843D0D4F82861D4F80831D4F824918B
:102F3000304607219847234902463046C847D4F80F
:102F40001831D4F828011F49072298470DF10F03C3
:102F500000950193D4F81061D4F828011949022290
:102F60000023B0471F230093174B0193D4F8280187
:102F70001449D4F8146102220023B0478DE82001DF
:102F8000D4F82801D4F810510E4902220023A84792
:102F900004238DE88800D4F81051D4F82801094999
:102FA00000230A22A847D4F81C3101E0D4F82031CC
:102FB000D4F828010349984705B0BDE8F08300BF65
:102FC000644800206C400020CE7D01080000000015
:102FD0002DE9F04F2DED028B8B4C8C4B94F801902A
:102FE0000025B9F1080F9BB01D8042D1884CD4F860
:102FF0002871D4F80831D4F80C81012602218DF80B
:10300000586038469847834902463846C04748B317
:10301000D4F82871D4F80831D4F824810221384634
:1030200098477C4902463846C047D4F81831D4F84E
:10303000280178490222984716AB01930096D4F8EC
:103040001061D4F82801734902222B46B0470323AC
:103050000093714B0193D4F81461D4F828016D49A1
:103060000222ECE1D4F82031D4F8280169499847CC
:10307000F0E3B9F1010F40F0E180217E012900F079
:10308000E983277D0897677D207B0997A77D0390BB
:103090000A97607BE77D04900B97A07B277C0590C7
:1030A0000C97E07B677C06900D97A078A77CDFF8F3
:1030B00084A10790227994F8058094F80690E67927
:1030C000237A94F809E094F80AC0E57AE0780E973C
:1030D000E47C0F949AF80040172C00F2BB834F4F0A
:1030E00071B117F801B0BBF1000F09D104F1010B68
:1030F0008AF800B07C54DFF830A164010AF80410AB
:10310000360642EA082246EA0946164307EE906A66
:103110009FED438A434A7C5C4349F8EEE77A2D06EB
:1031200087EE887A43EA0E2345EA0C4501EB441406
:103130001D433E4BD2ED007AF8EEE77A77EE677AE0
:10314000C4ED017A07EE905AF8EEE77A87EE887AB6
:10315000D3ED007A079BF8EEE77A43EA002077EE9A
:10316000677A00B2C4ED027A07EE900AF8EEE77AC9
:1031700017EE900A13F0C0FF00222D4B14F03AF91D
:103180001FA3D3E9002314F00BF814F0EBFA069B0D
:103190000499E0601A06059B42EA0342039B43EA56
:1031A0000123134307EE903AF8EEE77A099A089B59
:1031B0000D99C7EE887A43EA02230B9AC4ED047A8C
:1031C00007EE903AF8EE677A0A9BC7EE887A43EAF0
:1031D00002231BB20E9AC4ED057A07EE903AF8EE80
:1031E000E77A0F9BC7EE887A1B0643EA02420C9BE4
:1031F00043EA01231343E361C4ED067A2AE300BFE7
:10320000399D52A246DF913F983A0020183B00209A
:10321000644800206C400020377E010815510020D2
:103220000000C842B0000020144E00201C00002006
:10323000000024401451002000007A44B9F1020F2C
:1032400040F01881E678012E40F00483A3788DF8D1
:103250004630A37BE17B227B1FED097AE079DFF822
:1032600010B21B0443EA0161637B42EA03230B4370
:1032700007EE903AF8EEE77AA3792279C7EE877ADB
:103280001B0443EA0063607942EA002018430DF111
:103290005808CDED127A13F01DFF6BA3D3E900237C
:1032A00014F0A8F814F05EFA13F026FF68A3D3E92F
:1032B000002313F075FF14F055FAA37A1390E07A07
:1032C000227A1B0443EA0063607A634C42EA0020DE
:1032D000184313F0FFFE5CA3D3E9002314F08AF82F
:1032E00014F040FA13F008FF59A3D3E9002313F0B8
:1032F00057FF14F037FA9BF80030149013A940469A
:103300008DF8643006F078FC9DF846001799169AFF
:10331000129B03F083FD9DF84620504BD4F8287192
:10332000D4F80CA10C2101FB02334D4A93ED007A35
:10333000D2ED007A4B4AF8EEE77A102177EE277A41
:103340003846CDED177AD2ED007A93ED017A8DF8FB
:103350004760F8EEE77AD4F8083177EE277ACDEDBA
:10336000167A9847404902463846D04700283FF42D
:1033700079AED4F82871D4F80831D4F824A13846AD
:1033800010219847384902463846D047D4F81831BA
:10339000D4F828013449102298470DF147030096CC
:1033A0000193D4F81071D4F828012F494A462B46CE
:1033B000B847232300932D4B0193D4F81471D4F80C
:1033C000280129494A462B46B8470DF14603009685
:1033D0000193D4F81071D4F8280123494A462B46AA
:1033E000B8474FF0040A17AB0193CDF800A0D4F80A
:1033F00028011D49D4F810710A222B46B847CDF890
:1034000000A0CDF80480D4F828011749D4F8107131
:103410000A222B46B84712AB0193CDF800A0D4F88E
:1034200028011149D4F810710A222B46B8478DE8BB
:1034300040080D49D4F81061D4F828014A462B46BB
:10344000B047D4F81C310FE600000000D0126341F1
:10345000399D52A246DF913F6448002020000020A1
:10346000B00000201C0000206C4000203C7E0108C1
:1034700018000020B9F1050F40F0CB80E378012B54
:1034800040F0E881A0780CF0A1F9B74BD3ED007AB9
:10349000F0EEE77A17EE900A13F02EFEB0A3D3E910
:1034A000002313F0A7FF14F03DF9B04B8DF847004F
:1034B0001B881B0601D408F067FBAD4BAD4C1868A8
:1034C0000FF0B0F9AC4B139018680FF0ABF9D4F8CB
:1034D00028611690012516218DF84850D4F808313E
:1034E000D4F80C7130469847A44902463046B84794
:1034F00000283FF4B7ADD4F82861D4F80831D4F8E7
:103500002471DFF8B8923046162198479B4902464D
:103510003046B847D4F81831D4F828019749162214
:10352000984712AB00950193D4F81061D4F82801A4
:10353000924902220023B0470A26914B009601933C
:10354000D4F81471D4F828018C4902220023B8471A
:103550008C4B00950193D4F81071D4F82801874959
:1035600002220023B847884B009501934FF00408CE
:10357000D4F81071D4F82801804902220023B847FA
:10358000CDF80080CDF80490D4F82801D4F810715B
:103590007A4932460023B84709EB08030193CDF876
:1035A0000080D4F82801D4F8107174493246002301
:1035B000B84713AB0193CDF80080D4F82801D4F8B4
:1035C00010716E4932460023B84716AB0193CDF80F
:1035D0000080D4F82801D4F81071684932460023DD
:1035E000B8470DF1470300950193D4F82801D4F8AA
:1035F0001061624902220023B047644B0193009599
:10360000D4F81051D4F828015C4902220023A847BD
:1036100017E7B9F1030F32D1A378012B40F01A81DB
:10362000A279E1792379E57A207A120442EA0161EC
:10363000627943EA022341EA0302A17A4B4B09046F
:1036400041EA0565617AC3F8582240EA012129431D
:10365000C3F85412A17BE57B93F84422207B090434
:1036600041EA0565617B22F0030240EA012129431A
:1036700042F00C02C3F85C1283F84422EAE0B9F18C
:10368000040F40F0AA80E378012B40F0E380A37997
:10369000E2796079A1788DF84C101B0443EA02624C
:1036A000237943EA0023134307EE903A16930B293C
:1036B00000F2CC80DFE801F0060C121418252C452E
:1036C0004B84BB8AFCEEE77A314A17EE903A82E0EF
:1036D000FCEEE77A2F4A17EE903A7CE02E4B00E0A2
:1036E0002E4BC3ED007AB1E0F5EE407AF1EE10FA20
:1036F0002B4B01D100221DE093ED007A77EE277A63
:103700001AE0284A00231380274A1370002316E08A
:10371000B7EE007AF4EE477AF1EE10FA234B01D1BE
:10372000234A07E0BFEE007AF4EE477AF1EE10FA92
:1037300002D1204A1A6001E0C3ED007A1B6816939B
:1037400084E0FCEEE77A1C4A17EE903A43E0FCEE88
:10375000E77A154A17EE903A3DE000BFAFF30080DC
:10376000182D4454FB2119407C3C002024420020A9
:103770008C3C002064480020A83C00206C400020C5
:10378000457E0108EA4D0020EC4D0020AD3C0020B4
:10379000783A00201A3B00205C3C0020983C002036
:1037A000503C0020843A00207C3A0020683C0020F5
:1037B00000008C4200008CC2823A00202C43002082
:1037C000FCEEE77A264A17EE903A04E0FCEEE77A40
:1037D000244A17EE903A137038E0B9F1100F39D13E
:1037E000E378012B36D1A3788DF84C300B2B29D8F8
:1037F000DFE803F006080A0C0E101317191B1D2131
:10380000194B19E0194B17E0194B07E0194B05E06C
:10381000194B03E0194B1B880FE0194BD3ED007ACD
:1038200012E0184B08E0184B06E00D4B04E0174B74
:10383000B3F8F83001E00B4B1B7807EE903AF8EE46
:10384000677A01E0DFED127ACDED167A13A816A99A
:10385000FFF750FB1BB0BDEC028BBDE8F08F00BF43
:10386000813A0020B33B0020783A00201A3B002028
:103870005C3C0020983C0020503C0020843A002012
:10388000683C0020823A00207C3A0020BC4A00209C
:10389000000000001F4B20492048002210B51A707C
:1038A00000230B601E490B601E4908601E490B6017
:1038B0001E494FF07E5008601D491E4808601E4991
:1038C0001E480B601E490A701E490A701E490B6093
:1038D0001E490B601E4901601E484FF07A54046077
:1038E0001D481E4C04601E4801601E491E480860A9
:1038F0001E491F4808601F491F4808601F4920488B
:103900000B6020490B602049086020490B60204B68
:103910001A8010BD303B00202C3B0020EC51383E7B
:10392000683B0020783B00206C3B0020283B0020B7
:10393000803B00200000A040503B00201C3B0020AA
:10394000643B00205C3B00207C3B0020583B002077
:103950006666E63E743B0020243B00209A99593F5E
:10396000703B0020403B00209A99193E603B0020AC
:103970000AD7233C4C3B0020CDCCCC3D203B002043
:10398000CDCC4C3D483B0020343B0020383B002050
:10399000443B002010B5274B2DED028B93ED008AA0
:1039A000254B1A8812F4007F1C4601D107F0F4FF62
:1039B000D4ED207A214B224A78EE677AC3ED007A63
:1039C000204B93ED007A204BD3ED006A1F4B27EE7E
:1039D000267AD3ED006A1E4BA6EEA77AD2ED006AD6
:1039E00083ED007AB4EEE67AF1EE10FA06DCF1EE41
:1039F000666AB4EEE67AF1EE10FA01D5C3ED006A1C
:103A0000144B1A789AB9F0EEE77AB2EE047AF4EE33
:103A1000C77AF1EE10FA104B08D4B3EE047AF4EE44
:103A2000C77AF1EE10FACCBF012202221A70BDEC67
:103A3000028B10BD2C3B0020244200206C3B002058
:103A4000803B0020683B0020283B0020783B002082
:103A5000503B0020643B00205C3B00200000000045
:103A60002DE9F043944B2DED088BB3F8142112F09F
:103A7000800F83B01C4601D108F094F98F4B94ED70
:103A8000599A93ED007A8E4B8E4DD3ED007A8E4C81
:103A900079EE47AA95ED009AC3ED00AA8B4B93ED02
:103AA000006A8B4BD3ED006A8A4B93ED008A8A4BF8
:103AB000A6EE878AD3ED006A884BF0EE6A5AE6EEEE
:103AC000895A7AEEE77AF0EE656AD3ED005A844BB4
:103AD000E5EEA76AA6EE668AD3ED006A814BB0EEEA
:103AE000476AD3ED008A804BA7EEA66A1B78012BAC
:103AF00066EE288A05D0022B7C4EDFED7D9A0FD032
:103B000092E0B5EEC07AF1EE10FAC9BF794B7A4B6C
:103B10002360B7EE008ADCBF23609FED788AA3E0C4
:103B2000774B93ED00BAF0EECB7A17EE900A13F0D4
:103B3000E3FA0022734B13F07FF90022714B13F06C
:103B400059FC13F00FFE0AEE100AF7EE007A77EE3A
:103B5000CA7A96ED007AA7EEAA9A78EE878AB4EE32
:103B6000E99AF1EE10FA27EE888A67EEA88A02DD5C
:103B7000C5ED009A0AE0DFED647AB4EEE79AF1EE63
:103B800010FA58BFF0EE497AC5ED007AB5EEC0BA2A
:103B9000F1EE10FA15DD18EE900A13F0ADFA0646B4
:103BA0001AEE100A0F4613F0A7FA3FA3D3E9002339
:103BB00013F0F6FA38EE0A8A02460B4630463946CA
:103BC0002CE01AEE100A13F097FA064618EE100AC7
:103BD0000F4613F091FA36A3D3E9002380468946B5
:103BE0003046394613F0DCFA02460B464046494659
:103BF00013F024F913F0B6FD08EE100A18EE900A3F
:103C000013F07AFA002280468946404B3046394606
:103C100013F0C6FA02460B464046494613F00EF929
:103C200013F0A0FD20601FE039EE2A9AB4EEE99A65
:103C3000F1EE10FA02DDC5ED009A0AE0DFED327A0E
:103C4000B4EEE79AF1EE10FA48BFB0EE679A85ED50
:103C5000009AD6ED007A2E4B78EEA78AD3ED007A43
:103C600078EEA78AC4ED008ADFED2A7A28EE278A4B
:103C7000B5EEC08AF1EE10FA0BD4B4EEE78AF1EE9D
:103C800010FA08DCBDEEC88A8DED018ABDF804305B
:103C900003E0002301E04FF416531F4A138003B0E2
:103CA000BDEC088BBDE8F083333333333333D33F7C
:103CB0009A9999999999B93F24420020503B002044
:103CC0003C3B0020483B00207C3B0020603B002028
:103CD000403B0020703B00204C3B0020203B00205C
:103CE000383B0020343B00205C3B0020583B002048
:103CF000000016439A99993E000080BECDCCCC3D81
:103D00006C3B002000002440000016C30000D0BF20
:103D1000B03C002000001646443B00202DE9F04155
:103D2000114B124D1B88B5F80080C8EB03039CB201
:103D300020B213F0CFF900220D4B06460F4613F0C8
:103D4000BFFC58B90B4B30463946002213F09AFCA1
:103D50004FF6B073002818BF1C4600E050244444BE
:103D60002C80BDE8F08100BF443B0020543B002084
:103D700000005440000054C008B501F01FFE00F0E0
:103D800009F802F059F801F0CDF901F081FE01F0D7
:103D900063FAF6E710B507F0E9FD0AF091FC0BF0C5
:103DA0002DFC08F0C5FA08F0F5F9FCF705FAFEF766
:103DB000C3F9FFF713F804F02DFBFFF76BFD03F0D9
:103DC000B7F807F023FB07F03FF8284B02221A70E0
:103DD0000CF016FC0021264806F050FE254B002171
:103DE00018704FF07A5006F049FE234B00211870EE
:103DF000224806F043FE224B002118701C4806F0B2
:103E00003DFE204B00211870194806F037FE1E4B6E
:103E1000002118704FF07E5006F030FE1B4B002141
:103E200018701B4806F02AFE1A4B187009F00AFE9B
:103E30000CF0B0F9184B19481B6800221A815A81FE
:103E40009A8190F884301B0702D4843006F0CEFAB1
:103E5000134B1C6A44B12378012B03D863681149C2
:103E600001209847A468F5E710BD00BFB33B0020D0
:103E70000AD7233C903B0020203C00208988883CC6
:103E8000163C0020853B0020EE3B0020A03B00209C
:103E90000AD7A33CF13B002004000020D84C0020AE
:103EA000BC3B0020A04D00202DE9F04F274C23788B
:103EB00087B03BB126482749FEF7AAFE00232370AE
:103EC00000F04CBE244B01931A78002A40F0858004
:103ED000224C234D23780133DBB2092B98BF23708A
:103EE0002B8888BF227001339BB2B3F5FA7F28BFBD
:103EF00000232B801B4B1A88013292B2B2F5617FEE
:103F000028BF00221A801B8833B9174B9B689B6E11
:103F100013B10F480F4998472B880A2B03D1124B36
:103F20009B68DB6F27E0142B03D10F4B9B681B6F43
:103F300021E01E2B04D10C4B9B68D3F894301AE07F
:103F4000282B13D1084B9B685B6D14E00C000020FC
:103F50006C4900206C400020783A0020A93B0020EA
:103F6000003C0020A63B0020F8320020322B06D176
:103F7000894B9B68DB6B13B1884889499847237844
:103F800033B9854B9B68DB6813B1844884499847F3
:103F9000237833B9804B9B68DB6913B17F48804934
:103FA0009847237833B97C4B9B68DB6D13B17B4812
:103FB0007B49984723783BB9774B9B68D3F8983077
:103FC00013B1764876499847237833B9724B9B688A
:103FD0005B6A13B1714872499847019B1B78012BAA
:103FE00040F0CB816F4A704C1378704D704E714F1A
:103FF0000133DBB2092B88BF002313706E4A029293
:1040000013780133DBB2312B84BF029A0023137083
:104010006A4A039213780133DBB23B2B84BF039AC5
:1040200000231370664A049213780133DBB2632BCA
:1040300084BF049A002313702378624A0133DBB2F1
:10404000682B88BF002323702B780133DBB26D2BE4
:1040500088BF00232B7033780133DBB2772B88BF06
:10406000002333703B780133DBB2812B88BF002300
:104070003B7013780133DBB28B2B88BF00231370A6
:104080009046514A13780133DBB2C72B88BF002317
:10409000137091464D4A13780133DBB2D12B88BFA0
:1040A0000023137092464A4A13780133DBB2DB2BAC
:1040B00088BF002313709346464A13780133DBB25E
:1040C000F92B88BF00231370434A138801339BB236
:1040D000B3F5FA7F28BF00231380404B1A880132C2
:1040E00092B2B2F5FE7F88BF00221A803C4A118846
:1040F000013189B2B1F5617F28BF0021118012889A
:1041000042B9254A9268926E22B124482449059307
:104110009047059B1B880A2B07D11F4B9B68D3F840
:10412000943013B11D481E4998472B4B1B88142B04
:1041300003D1194B9B68DB6F0AE01E2B03D1164B92
:104140009B681B6F04E0282B06D1134B9B68DB6B2D
:1041500013B11248124998471E4B1B78322B07D1D6
:104160000D4B9B68D3F8803013B10C480C4998472D
:104170009BF800303C2B06D1074B9B68DB6A13B1E0
:104180000648074998479AF80030462B2AD1024B37
:104190009B68D3F89C302AE0F83200206C4900205C
:1041A0006C400020053C0020FA3B0020FF3B002033
:1041B000B23B0020F03B0020893B0020913B0020D7
:1041C000FE3B00200E3C0020EF3B0020B43B0020D3
:1041D0009C3B0020F83B0020023C0020E83B0020F4
:1041E000AA3B0020502B06D12F4B9B685B6913B173
:1041F0002E482F49984799F800305A2B03D12A4B63
:104200009B681B6B04E0642B06D1274B9B681B69E2
:1042100013B126482649984798F800306E2B03D1F1
:10422000214B9B681B6804E0782B06D11E4B9B68D2
:104230005B6C13B11D481E4998473B7833B91A4B44
:104240009B689B6C13B119481949984733780A2B1E
:1042500003D1154B9B685B680AE0142B03D1124B0A
:104260009B689B6D04E01E2B06D10F4B9B685B6D1A
:1042700013B10E480E4998472B78282B03D10A4BCF
:104280009B681B6A04E0322B06D1074B9B68DB6EF0
:1042900013B106480649984723783C2B0AD1024BB4
:1042A0009B689B6F0CE000BFF83200206C49002037
:1042B0006C400020462B07D1854B9B68D3F890308B
:1042C00013B1844884499847049B1B78502B06D12E
:1042D0007F4B9B681B6C13B17E487F499847039BBB
:1042E0001B781E2B06D17A4B9B689B6813B17948CB
:1042F00079499847029B1B78282B06D1744B9B6801
:104300001B6E13B1734874499847744C237833B9C2
:104310006F4B9B685B6E13B16E486F49984723786B
:1043200033B96B4B9B68DB6813B16A486A4998479D
:10433000237833B9664B9B68DB6913B165486649DE
:104340009847237833B9624B9B68DB6D13B16148A2
:104350006149984723783BB95D4B9B68D3F8983007
:1043600013B15C485C499847237833B9584B9B6834
:104370005B6A13B1574858499847019B1B78022B39
:1043800040F06281564A02921378564C564D574E71
:10439000574F0133DBB2682B84BF029A002313709E
:1043A000544A039213780133DBB26D2B84BF039A16
:1043B00000231370504A049213780133DBB2812B2F
:1043C00084BF049A0023137023784C4A0133DBB274
:1043D0008B2B88BF002323702B780133DBB2952B06
:1043E00088BF00232B7033780133DBB2D12B88BF19
:1043F000002333703B8801339BB2B3F5967F28BF0F
:1044000000233B80138801339BB2B3F5987F88BFAC
:104410000023138090463A4A138801339BB2B3F5C8
:10442000A07F28BF002313809146364A13880133AA
:104430009BB2B3F5C87F28BF002313809246324A4F
:10444000138801339BB2B3F5CA7F88BF0023138062
:1044500093462E4A138801339BB2B3F5FA7F28BFE7
:10446000002313802A4B1A88013292B2B2F5FE7FE4
:1044700088BF00221A80274A1188013189B2B1F51C
:10448000617F28BF00211180128842B9104A9268CA
:10449000926E22B10F48104905939047059B1B88E7
:1044A0000A2B04D10A4B9B68D3F8943004E0142BF8
:1044B00006D1074B9B685B6913B1064806499847CC
:1044C000124B1B881E2B27D1014B9B681B6B34E0C2
:1044D000F83200206C4900206C400020053C002090
:1044E000F43B0020B63B0020073C00201C3C002091
:1044F000F23B0020883B0020F93B0020103C0020CC
:104500009E3B00201A3C0020AE3B00208E3B00204A
:104510008C3B0020143C0020282B03D12D4B9B68A2
:10452000DB6A0AE0322B03D12A4B9B681B6F04E045
:104530003C2B06D1274B9B68DB6B13B126482749E0
:104540009847BBF80030462B06D1224B9B689B6FE7
:1045500013B1214821499847BAF80030502B06D1B1
:104560001C4B9B685B6A13B11B481C499847B9F800
:1045700000305A2B06D1174B9B685B6D13B1164860
:1045800016499847B8F80030642B07D1114B9B6847
:10459000D3F8903013B11048104998473B886E2BE0
:1045A00006D10C4B9B681B6C13B10B480B49984709
:1045B0003378782B07D1074B9B68D3F89C3013B125
:1045C0000548064998472B78822B09D1014B9B68F7
:1045D0009B6A0AE0F83200206C4900206C40002001
:1045E0008C2B06D18A4B9B689B6D13B189488A49F5
:1045F000984723780A2B06D1854B9B68DB6E13B155
:10460000844885499847049B1B78142B06D1804B1E
:104610009B689B6813B17F487F499847039B1B7831
:104620001E2B06D17A4B9B681B6A13B179487A49D5
:104630009847029B1B78282B06D1754B9B681B6EF5
:1046400013B1744874499847019B1B78032B40F0C1
:10465000B880724C724D2388724E734F01339BB2F7
:10466000B3F5FA7F28BF002323802B8801339BB248
:10467000B3F5FE7F88BF00232B80338801339BB2C4
:1046800040F21122934288BF002333803B88674A5F
:1046900001339BB2B3F5077F28BF00233B8013880B
:1046A00001339BB240F239218B4288BF0023138033
:1046B00090465F4A138801339BB240F2ED218B4252
:1046C00088BF0023138091465A4A138801339BB256
:1046D000B3F5487F28BF002313809246564A1388BB
:1046E00001339BB240F2F1318B4288BF002313802B
:1046F000524B93461A88013292B240F2FA318A4202
:1047000088BF00221A801B8833B9414B9B689B6F7E
:1047100013B1404840499847BBF800300A2B06D1F6
:104720003B4B9B681B6A13B13A483B499847BAF820
:104730000030142B06D1364B9B68DB6A13B1354829
:1047400035499847B9F800301E2B06D1304B9B688D
:104750001B6F13B12F4830499847B8F80030282B09
:1047600007D12B4B9B68D3F8943013B129482A49C1
:1047700098473B88322B06D1254B9B681B6C13B1A5
:1047800024482549984733883C2B06D1204B9B6809
:104790009B6813B11F48204998472B88462B06D1A8
:1047A0001B4B9B681B6E13B11A481B499847238803
:1047B000502B06D1164B9B68DB6B13B1154816497D
:1047C0009847019B1B78042B6DD11D4C1D4A237803
:1047D0000133DBB2042B88BF00232370137801332D
:1047E000DBB2312B88BF00231370174B15461A78A4
:1047F0000132D2B2D12A88BF00221A701B782BBB9B
:10480000034B9B68DB6B0BB30248034998471DE0E1
:10481000F83200206C4900206C4000200A3C002047
:10482000F63B00209A3B0020863B0020A43B002062
:10483000FC3B0020223C0020EA3B0020B03B002053
:10484000B53B0020A23B0020BA3B00202B780A2B6E
:1048500004D1394B9B68D3F88C3004E0142B06D17B
:10486000354B9B689B6D13B1344835499847237885
:104870003BB9314B9B68D3F8883013B12F4830498E
:104880009847237833B92C4B9B685B6F13B12B4847
:104890002B499847237833B9274B9B681B6D13B17D
:1048A000264827499847019B1B78052B5BD1254C4F
:1048B000254D2378254A0133DBB2062B88BF002320
:1048C00023702B780133DBB2092B88BF00232B70B8
:1048D00013780133DBB2312B88BF002313701C4BDC
:1048E00016461A780132D2B2D12A88BF00221A7035
:1048F0001B7833B9104B9B68DB6B13B10F48104921
:10490000984733780A2B06D10B4B9B689B6D13B1EC
:104910000A480B4998472B7833B9074B9B68DB69EA
:1049200013B10648064998472378032B12D1024B4E
:104930009B68D3F8983012E0F83200206C490020D0
:104940006C400020063C0020A13B0020A83B00203A
:10495000173C0020062B06D1824B9B68DB6D13B100
:10496000814882499847019B1B78062B40F0F680CE
:104970007F4D804C2B78804E804F814A0133DBB2D3
:10498000092B88BF00232B7023780133DBB2312B36
:1049900088BF00232370338801339BB2B3F5FA7FBD
:1049A00028BF002333803B8801339BB2B3F5FE7FE1
:1049B00088BF00233B80138801339BB240F2112152
:1049C0008B4288BF0023138090466E4A13880133C0
:1049D0009BB2B3F5077F28BF0023138091466A4A34
:1049E000138801339BB240F225218B4288BF0023FC
:1049F00013809246654A138801339BB240F23921F5
:104A00008B4288BF00231380614B93461A88013282
:104A100092B240F2F1318A4288BF00221A805D4A88
:104A20001188013189B240F2FA30814288BF0021F9
:104A30001180128842B94B4A9268926F22B14A485B
:104A40004A4901939047019B1B880A2B06D1454B8D
:104A50009B681B6A13B1444844499847BBF800302F
:104A6000142B07D13F4B9B68D3F8943013B13E48C9
:104A70003E499847BAF800301E2B06D1394B9B6847
:104A80001B6F13B1384839499847B9F80030282BC3
:104A900006D1344B9B681B6C13B13348334998479C
:104AA000B8F80030322B06D12E4B9B689B6813B1AF
:104AB0002D482E4998473B883C2B06D1294B9B68B3
:104AC0001B6E13B12848294998473388462B03D1D8
:104AD000244B9B68DB6A04E0502B06D1214B9B687A
:104AE000DB6B13B12048214998472378282B04D148
:104AF0001C4B9B68D3F8883015E01BB9194B9B6899
:104B00005B6F10E00A2B03D1164B9B681B6D0AE00C
:104B1000142B03D1134B9B68DB6904E01E2B06D1D9
:104B2000104B9B68DB6D13B10F48104998472378F1
:104B3000282B07D10B4B9B68D3F8983013B10A4848
:104B40000A4998472B784BB9064B9B685B6A2BB197
:104B50000548064907B0BDE8F04F184707B0BDE863
:104B6000F08F00BFF83200206C4900206C4000201C
:104B7000943B0020AC3B0020B83B00200C3C0020C4
:104B8000923B00208A3B0020123C0020963B0020F4
:104B90001E3C0020EC3B00202DE9F04F8E4BDFF84F
:104BA0007CB21B7887B013B38C4B8D4A1B68D2F84C
:104BB000EC209B1A022B0FD99BF800309A1E012A79
:104BC00015D8884A137004238BF80030FEF7FEF8DE
:104BD000854B01221A700AE0834B1A783AB1814A58
:104BE00012788BF8002000221A70FEF7EFF802F01E
:104BF000FBF89BF80030032B02D102F067F906E0C6
:104C0000042B02D102F0F8F901E002F081FE774BAB
:104C1000D3ED007AF0EEE77A17EE900A12F06CFA14
:104C20006BA3D3E9002312F0E5FB12F07BFD704B80
:104C30008DF80E001B881B0601D406F0A5FF6D4BF6
:104C40006D4C18680DF0EEFD6C4B049018680DF07B
:104C5000E9FDD4F828710590012516218DF80F5033
:104C6000D4F80831D4F80C81384698476449024694
:104C70003846C047002800F09180D4F82871D4F855
:104C80000831D4F82481DFF898A1384616219847D6
:104C90005B4902463846C047D4F81831D4F8280199
:104CA0005749162298470DF10F0300950193D4F848
:104CB0001071D4F82801524902220023B8470A276C
:104CC000504B00970193D4F828014D49D4F8146152
:104CD00002220023B0474C4B00950193D4F82801E1
:104CE0004749D4F8106102220023B047474B009592
:104CF0004FF004090193D4F828014149D4F8106118
:104D000002220023B0473A46D4F828013C49D4F89F
:104D10001061CDF800900023CDF804A0B0470AEB55
:104D200009033A460193D4F828013549D4F81061B3
:104D3000CDF800900023B04704AB3A460193D4F875
:104D400028012F49D4F81061CDF800900023B04716
:104D500005AB3A460193D4F828012949CDF80090D3
:104D60000023D4F81061B0470DF10E0300950193B4
:104D7000D4F828012249D4F8107102220023B84740
:104D8000234B00950193D4F81051D4F828011C4905
:104D900000230222A847D4F81C3101E0D4F82031C6
:104DA000D4F82801164998471A4B1B78032B01D1D8
:104DB000FEF7F0FD9BF80030023B022B05D8164BA6
:104DC0001B78022B01D903F097FB07B0BDE8F08FE9
:104DD000182D4454FB2119407C3A0020E43D00206A
:104DE000BC4A0020043C0020793A00207C3C002092
:104DF000244200208C3C002064480020A83C002075
:104E00006C400020457E0108EA4D0020EC4D00205A
:104E1000AD3C0020303B0020913A0020823A002037
:104E20002C430020000000002DE9F843464B1B787E
:104E3000012B67D9454B464C1B78012B07D1454BBD
:104E40001A88454B1A80454B1B68236002E001D944
:104E5000FEF706FE424B1E88304612F03BF9002258
:104E6000002312F02DFC30B33B4DB5F9000012F0D9
:104E700031F907EE906AF8EE677A804617EE900AED
:104E8000894612F039F902460B4629A1D1E9000101
:104E900012F0B0FA02460B464046494612F080F93D
:104EA00012F018FC00B2B0F5165FA8BF4FF4165010
:104EB00020EAE070288025682A4C284612F01CF968
:104EC0001DA3D3E9002306460F4612F0F9FB08B1F3
:104ED000254B0AE03046394619A3D3E9002312F0E6
:104EE000D1FB08B9256001E0204B2360204B1B78E3
:104EF0002BB9204B1B882BB91F4B1B7813B9164BB2
:104F000000221A8003F020FDFEF708FF1B4B1C4A0D
:104F10001B6812881A801B4A128852425A801A4A09
:104F200012889A80194B01221A70BDE8F88300BFDD
:104F30000000000000C05B40A038DB3752C1E03FFA
:104F4000A038DB3752C1E0BF823A0020303B00205E
:104F50007C3B0020583C0020443B0020B03C00201B
:104F60007E3A0020003D0020920A063F920A06BFCA
:104F7000813A0020843A00207C3A0020040000207E
:104F8000543B0020F43C0020043D0020403700202A
:104F900008B5FDF765F9BDE8084009F0DFBB000082
:104FA000F0B5524C238885B00BB101332380504AB1
:104FB0001388013313804F4B188812F08BF84E4B37
:104FC000002212F05FFB4D4B18B11A7801321A70B3
:104FD00000E018704A4918784A4A0B78042894BFB0
:104FE000184643F00100137816465BB1464BDFEDDF
:104FF000477A93ED007AB4EEE77AF1EE10FACCBF7F
:105000000123002303430B702388002B6CD1404BFA
:10501000B3F8142112F4807F1D4601D106F060FF21
:1050200095ED5A7AF1EE047AB4EEE77AF1EE10FAE1
:105030005ADD01252580374C374B3570D4F828616F
:105040001B68ADF80E3004218DF80D50D4F80831EE
:10505000D4F80C7130469847304902463046B8477C
:1050600000283BD0D4F82861D4F80831D4F8247152
:10507000304604219847294902463046B847D4F8BB
:105080001831D4F828012549042298470DF10D0361
:1050900001930095D4F81051D4F828011F49022239
:1050A0000023A84704251E4B01930095D4F81461F2
:1050B000D4F82801194902220023B04702230093A3
:1050C0000DF10E030193D4F81061D4F828011349AF
:1050D00000232A46B047D4F81C3101E0D4F820312F
:1050E000D4F828010D49984705B0F0BD843A002056
:1050F000183B00207E3A002000405740083C00202A
:10510000813A00207C3A0020A83C002000C145489C
:105110002442002064480020E43D00206C40002030
:10512000507E0108F8B5404B404C1B78142202FB1E
:10513000034310331A791AB100221A71FFF728FFBE
:105140003B4B1B78142202FB034310331A791AB12C
:1051500000221A71FDF700F8364B1B78142202FB6F
:10516000034310331A791AB100221A71FFF714FDA4
:10517000314B1B78142202FB034310331A791AB106
:1051800000221A71FFF750FE2C4B1B78142202FBF1
:10519000034310331A7962B3294F2A4E2A4D002255
:1051A0001A713B780133DBB2092B98BF3B7033781F
:1051B00088BF3A700133DBB2182B88BF00233370ED
:1051C0002B78022B03D105F03FFE01232B702B78A7
:1051D000032B02BF1C4B00221A703B780BB906F060
:1051E00033F93378052B04D12B78012B01D105F04D
:1051F00045FE164B1B78142202FB034310331A7929
:105200001AB100221A71FFF7CBFE114B1B78142242
:1052100002FB0344103423792BB100232371BDE832
:10522000F840FEF741BEF8BD903B0020E43D002071
:10523000F13B0020203C0020163C0020853B002054
:10524000983B0020183C0020B33B0020A03B0020EE
:10525000EE3B00200000000070B5A54CA54D2DEDE3
:10526000028BFDF707F8D4F83831D4F8400198479D
:1052700070B92B78ABB109F07BFD12E02B78002BD5
:10528000F7D1D6F83C31D6F84001984709F0A4FC94
:10529000D4F83831D4F84001954E98470028EDD124
:1052A000E7E7954DFCF77EFFD5F83831D5F840019A
:1052B0009847002800F08280D5F83831D5F84001B1
:1052C0008D4E8E4C9847002862D094F80131002B07
:1052D0005ED1D6F83C31D6F84001984794F80431B5
:1052E000042B4CD8DFE803F003072139420099284A
:1052F000E2D1012349E094F80121804B02F0FF0143
:105300002AB193F80221013283F8022137E0021F0B
:10531000D2B283F80021022283F8070183F8060144
:1053200083F8042183F80511C6E794F8053194F851
:105330000621E054104494F80721C0B284F8060115
:105340000133104494F8002184F80701DBB2934242
:1053500084F80531B0D1032204E094F80631834289
:105360000DD10422654B83F80421A5E794F8073199
:10537000834204D1614B012283F8012104E094F8B7
:105380000331013384F80331002384F8043193E7B7
:1053900094F8013193B1002394F80011574A581C36
:1053A000DBB28B4204D2D15C554AD1540346F3E7B9
:1053B000544B01211970002382F80131514C23789C
:1053C0001BB1FDF705FE002323704F4B1A78002A0E
:1053D00000F0CD8000224D4C1A704D4B20681B68A8
:1053E000C288DA80417C4B4DC1F3400222B12A7859
:1053F000012A8CBF002201222B78033B012B0ED9FE
:10540000454B1B7863B1454B1B781BB1414B0326C1
:105410001E70012322B103232B70012300E000231F
:10542000CA0613D5B0F90A20B2F5965F05DC12F56D
:10543000965FD4BF0022012200E002222878904229
:1054400017BF344800220270012213433448027807
:105450008A4206D04A4012F00F02017018BF0122A2
:1054600000E00022134301D0FDF7B0FC2E78012E9E
:105470005ED125689FED2B8AB5F9003007EE903A92
:10548000F8EEE77AC7EE887A17EE900A11F034FE4C
:1054900013A3D3E9002311F083FE0022002311F0AF
:1054A000CDFC12F05FF9204B1860B5F9023007EE21
:1054B000903AF8EEE77AC7EE887A17EE900A11F084
:1054C0001BFE09A3D3E9002311F06AFE002300228A
:1054D00011F0B4FC12F046F9144B186029E000BF3B
:1054E000333333333333EB3F333333333333E33F0C
:1054F00084400020C04B0020403F00206448002032
:10550000983A0020923A00205237002000000020F4
:1055100004000020823A00207C3A0020AE3C0020AB
:10552000803A002000001646143D0020003D002077
:1055300003D823689A88114B1A802368104A197C73
:105540001170104A998A11800F4A996911600F4AA7
:10555000D96911600E4A12884AB9022E07D1B3F9EF
:105560000430B3F5075FC2BF0A4B01221A70BDECCD
:10557000028BBDE8704005F06FBF00BF443B0020C8
:10558000843B00207E3A0020883A00208C3A00209C
:10559000843A00207C3A0020184B1B6800221849EE
:1055A0005018C08898520232102AF8D1CA781A745A
:1055B0000A78B2FA82F1022A4FEA511114BF00228E
:1055C00002220A4342EA01120E49087801280CBF60
:1055D00004210021022842EA01020CBF0821002117
:1055E0000A435A74084A118899825168D268DA616C
:1055F0009961064B01221A70704700BF000000201D
:10560000165200202A3C0020884A002052370020F1
:105610000B4B0C49B3F9102012F5965FB4BF002272
:1056200001220A705AB9084A59891180D9885180D3
:1056300019899B89D380054B918001221A7070478C
:10564000165200202A3C00204C4800202C3C002010
:105650002DE9F043076AD0F80490036885B04FF055
:10566000050801260D4604460D218DF80E808DF8A3
:105670000F6038469847294602463846C8470028F2
:1056800044D09DF80E10D4F820902368E769B1400B
:105690000331C9B248469847294602464846B847AA
:1056A0009DF80E202369206AB24003322946D2B207
:1056B00098470DF10F030193A768206A00962946C9
:1056C00002220023B84769230093144B0193E76833
:1056D000206A294602220023B84700220DF10E035A
:1056E0000193A768206A009613462946B8479DF89B
:1056F0000E30A768206AB340DBB20093084B0193D9
:10570000294633464246B847636900E0A369206AE8
:105710002946984705B0BDE8F08300BF587E0108D0
:10572000924400202DE9FF41076AD0F80480036805
:1057300001260D4604460B218DF80F603846984728
:10574000294602463846C047002857D0276A2368B2
:10575000D4F81C8038460B21984729460246384623
:10576000C0472369206ADFF8B08029460B2298479A
:105770000DF10F0300960193A768206A29460222C3
:105780000023B84767230093204B0193E768206A02
:10579000294602220023B8470096206AA768CDF860
:1057A0000480294602220023B84708F1030300962B
:1057B0000193A768206A294602220023B847144BA8
:1057C00000960193A668206A294602220023B0476A
:1057D0000223104E00930196206AA76829460422EE
:1057E0000023B84704231E44009301960023A668B3
:1057F000206A29460722B047636900E0A369206A4E
:105800002946984704B0BDE8F08100BF627E0108D8
:105810002A3C0020884A0020165200202DE9FF4132
:10582000076AD0F80480042301260D468DF80E3057
:105830000B2103688DF80F600446384698472946C7
:1058400002463846C047002844D09DF80E10276A0B
:105850002368D4F81C80B14003313846C9B2984758
:10586000294602463846C0479DF80E202369206A23
:10587000B24003322946D2B298470DF10F0301938B
:10588000A768206A0096294602220023B8476623AB
:105890000093144B0193E768206A294602220023F3
:1058A000B84700220DF10E030193A768206A009605
:1058B00013462946B8479DF80E30A768206AB340C2
:1058C000DBB20093084B0193294633460522B847C3
:1058D000636900E0A369206A2946984704B0BDE8DF
:1058E000F08100BF6D7E01084C4800202DE9FF418A
:1058F000076AD0F80480082301260D468DF80E3083
:10590000132103688DF80F600446384698472946EE
:1059100002463846C047002844D09DF80E10276A3A
:105920002368D4F81C80B14003313846C9B2984787
:10593000294602463846C0479DF80E202369206A52
:10594000B24003322946D2B298470DF10F030193BA
:10595000A768206A0096294602220023B8476523DB
:105960000093144B0193E768206A29460222002322
:10597000B84700220DF10E030193A768206A009634
:1059800013462946B8479DF80E30A768206AB340F1
:10599000DBB20093084B0193294633460522B847F2
:1059A000636900E0A369206A2946984704B0BDE80E
:1059B000F08100BF767E01081C52002010B504F073
:1059C000C5FE08F025F906F0ADFB1E4A1E4B1188F6
:1059D0001980518859809188D2889980DA801B4B30
:1059E00001221A700AF0E8FB194B1A481B680024C0
:1059F0005C749C74184B1C70184B022221461A7060
:105A000005F03CF8164B214618701648164C05F068
:105A100035F8164B16491870164A204608F0D2F889
:105A200020461549154A08F0CDF820461449154A74
:105A300008F0C8F820461449144ABDE8104008F0A0
:105A4000C1B800BF327F01084C4800202C3C002028
:105A5000000000208988883C503700202A3C002024
:105A60002B3C0020CDCCCC3DF8320020323C002035
:105A7000627E0108255700086D7E01081D58000848
:105A8000587E010851560008767E0108ED5800083E
:105A900073B57948794C0AF07DFC04F091FE784AA0
:105AA0001378002B28D000231370764A1370764B9E
:105AB000764A01211970764B1B6818891080754A47
:105AC00058891080744A98891080744A1078022886
:105AD00008BF11701278012A04D001232370FFF748
