:020000040800F2
:1000000000000220315901082F5901082D5901081B
:100010002D5901082D5901082D5901080000000033
:100020000000000000000000000000002F5901083F
:100030002F590108000000002F590108050E000883
:100040002D5901082D5901082D5901082D59010874
:100050002D5901082D5901082D5901082D59010864
:100060002D5901082D5901082D5901082D59010854
:100070002D5901082D5901082D5901082D59010844
:100080002D5901082D590108C50300082D590108F3
:100090002D5901082D5901082D5901081114000886
:1000A0002D5901082D5901082D5901082D59010814
:1000B000091500082D5901082D5901082D5901086D
:1000C0002D590108B50A0008E10A00082D59010858
:1000D0002D5901082D5901082D590108D510000886
:1000E0002D5901082D5901082D5901082D590108D4
:1000F0002D5901082D5901082D5901082D590108C4
:100100002D5901082D5901082D5901082D590108B3
:100110002D590108511100082D5901082D590108C8
:100120002D5901082D5901082D5901082D59010893
:100130002D5901082D5901082D5901082D59010883
:100140002D5901082D5901082D5901082D59010873
:100150002D5901082D5901082D5901082D59010863
:100160002D5901082D5901082D5901082D59010853
:100170002D5901082D5901082D5901082D59010843
:100180002D5901082D5901082D5901082D59010833
:100190002D5901082D5901082D5901082D59010823
:1001A0002D5901082D5901082D59010808B5044899
:1001B00014F0E2FE4FF4E060BDE8084015F034BCF6
:1001C00048F10108244B984239D014D8A3F5805344
:1001D000984234D005D8B0F1804F30D0A3F5806379
:1001E00017E01E4B98422AD003F58063984226D030
:1001F000A3F500630DE01A4B984218D00CD8A3F574
:10020000644398421BD003F5604398420FD0A3F596
:10021000644398421DD112E0124B984207D003F577
:100220008063984203D0A3F50063984211D10E4B2E
:100230001B6813F4604F0D4B186808D170470A4BC8
:100240001B6813F4E05F0A4B186800D17047400048
:1002500070470020704700BF0018004000100040A9
:100260000004014000440140083802406032002090
:100270005C320020F7B508214448454C00F051F9A4
:100280004FF4086015F032FB002014F02BFD40F60F
:10029000880015F02BFB204614F076FF00210A465B
:1002A0000B46204614F0B9FF2046FFF78BFF394973
:1002B000B0FBF1F10139204614F0D4FF204642F2A0
:1002C000107114F0D1FF2046202114F0C3FF204606
:1002D00014F0BBFF0021122015F0BEFB02AE12206D
:1002E00015F0ACFB0D2306F8043D2B4B012704F55C
:1002F00000541F70294B002520461D605D609D60E5
:10030000DD6014F00DFD204614F00FFD204614F0C2
:1003100011FD204614F013FD204614F015FD204673
:1003200014F017FD204614F019FD204614F01BFDB3
:10033000204614F01DFD204614F01FFD14F0E8FCCB
:10034000204614F0D9FC204614F01CFD204614F081
:1003500050FD204614F030FD2046032114F0A7FC88
:1003600020463946324614F02CFD20464FF48031A9
:100370004FF4401214F0C5FC204614F0ADFC084BBD
:100380001D70084B1D7003B0F0BD00BF0008024097
:100390000000014080841E00A8360020983600200E
:1003A000A9360020AA360020044B81F845201B788E
:1003B000834284BF024B43F820107047A8360020C8
:1003C0009836002070B5174C204614F0E0FC40B37E
:1003D000236823F0040323600025134B1B78E9B244
:1003E0008B421ED9114B53F82140C4B10131C9B21F
:1003F0000C4814F0D0FC94F8443094F8452026685A
:100400000133DBB29A4298BF002304EB430280B26F
:10041000918890803044401A206084F8443001353F
:10042000DBE770BD00200140A83600209836002090
:10043000214B98422FD011D8A3F54063984221D088
:1004400004D8A3F58063984219D070471B4B98429B
:100450001BD003F5806398421AD07047184B98421E
:100460001FD004D8A3F58063984217D07047154B6E
:10047000984219D003F58063984218D070474FF422
:10048000C06016E040F2016013E040F2026010E04C
:1004900040F203600DE040F204600AE040F20560C3
:1004A00007E040F2066004E040F2076001E04FF42C
:1004B000C16015F01BBA00BF0010024000080240E6
:1004C00000180240001C024070B50C460546FFF7BC
:1004D000AFFF2846234601210022BDE8704014F0FA
:1004E000A0BD70B50C460546FFF7A2FF00212846C7
:1004F00023460A46BDE8704014F093BD70B50C4623
:1005000005461646FFF794FF28463146224614F06A
:10051000C4FD2846234602210022BDE8704014F0A5
:1005200080BD70B50C460546FFF782FF284623467E
:1005300003210022BDE8704014F073BD38B5446A51
:10054000002380F8233005464FF48071204614F0D4
:10055000FEFD20464FF4007114F0F9FD4FF4806168
:10056000204614F0F8FD204614F009FE204614F051
:10057000FCFD204614F0CDFD204614F0B6FD2046CB
:1005800014F0BDFD012385F8223038BDF8B50D4CBF
:100590000D4DD4F8583126686268B3FBF5F3B2FB11
:1005A000F3F305FB063615F013FA074615F018FAB3
:1005B000381AD4F85871B7FBF5F5B0FBF5F03044B4
:1005C000F8BD00BFB83D002040420F0010B50D4CF3
:1005D0002046FFF72DFF2046022100224FF4406302
:1005E00014F01FFD012120460A464FF4406314F029
:1005F0003AFD204604214FF44062BDE8104014F05B
:100600004CBD00BF0004024038B545694FF480611D
:10061000ADB2044614F09FFDE90703D52046002142
:1006200014F088FDAA0748BFA3696B0708D52046C8
:1006300014F08AFD20460021BDE8384014F07ABD50
:1006400038BD0000284BDA6A5B6A9169596949052F
:1006500007D55188013189B25180596921F48061EF
:1006600059615969C80507D59188013189B29180CE
:10067000596921F4807159615969890507D5D18873
:10068000013189B2D180596921F4007159615969E8
:10069000080507D51189013189B21181596921F401
:1006A000006159615969C90407D55189013189B27D
:1006B0005181596921F4805159615969480407D51C
:1006C0009189013189B29181596921F4804159613F
:1006D0005969090407D5D189013189B2D1815A6993
:1006E00022F400425A617047843D00202DE9F8430E
:1006F000B54F97F8213097F820207C6A9A423D4602
:100700000AD1FFF79FFF2046FFF77EFFFB6A5A6979
:1007100001325A61002333E057F82360636913F410
:100720005F4F0ED0032386F825300A2387F8223046
:1007300001233370FFF786FF2046FFF765FF02278E
:100740007BE196F80090B9F1010F40F00C81B6F80A
:100750000280B8F1010F03D0B8F1020F3BD06BE07B
:1007600063699BB2D9070FD520464FF4806114F01E
:10077000F2FC7178204641F0010114F0DBFC032308
:1007800087F82230BDE8F8839A0712D5204614F086
:10079000F6FC204614F0E9FC72B62046A36914F07A
:1007A000B3FC62B64FF48061204614F0D0FC0623FF
:1007B000E6E7580640F1318120464FF4806114F09D
:1007C000CAFC2369DBB27371022386F82530072344
:1007D00087F822308AE063699BB2D9070BD520469F
:1007E0004FF4806114F0B7FC204614F0B9FC2046A9
:1007F00014F0C0FCBDE79A070CD572B62046A36979
:1008000014F0B3FC20464FF4806114F0A4FC62B6EF
:100810000523B5E7580740F10081204614F074FC29
:10082000072387F822302369DBB273712369DBB2B7
:10083000B37186F8258059E063699BB213F0010219
:100840000BD020464FF4806114F085FC204614F054
:1008500096FC204614F084FC8BE799070FD587F8A7
:100860002320738897F82320033B9A4204DA20461A
:100870004FF4806114F06BFCA3690523A0E05F06D0
:1008800040D5626850053DD595F82320A8F10303B3
:100890009A420CDA95F8233022693344D2B25A7165
:1008A00095F823300133DBB285F8233020E095F84A
:1008B0002330454F08F1FF38434519DB20464FF4FC
:1008C000806114F048FC97F82380204614F03CFC2B
:1008D0005FFA88F806EB0803587197F82330013364
:1008E000DBB287F82330022386F825300127A4E005
:1008F000738895F82320033B9A4220464FF4806189
:100900007EDA2CE0590740F1888072B6204614F058
:100910002CFC95F82370204614F016FCFFB23744E7
:10092000787195F823300133DBB2204685F8233007
:1009300014F0EAFB62B6072385F8223095F823709D
:10094000204614F001FCFFB23E444FF48061707108
:1009500095F823300133DBB285F82330204614F0BC
:10096000F6FBBDE8F88363699BB2DA070AD5204637
:100970004FF4806114F0EFFB2046717814F0DAFB3D
:100980000223FDE6980721D5A3697179204614F06A
:10099000D1FB3379012B05D9B179204614F0CAFB7C
:1009A000022300E0012385F8233095F823303279C3
:1009B0009A4204D920464FF4806114F0C8FB042306
:1009C00085F82230BDE8F883843D002019061BD548
:1009D0006268520518D597F8233033442046597978
:1009E00014F0A8FB97F823300133DBB287F82330EB
:1009F00097F8233032799A4257D820464FF48061D5
:100A000014F0A9FBBDE8F8835B0706D50227B9F10E
:100A1000000F12D186F825700FE00A2385F82230E6
:100A2000012333700327EB6A86F825701A8A013296
:100A300092B21A822046FFF7E7FD3378022B0CD1E1
:100A400001233370204685F8223014F058FB2046ED
:100A50000021BDE8F84314F06DBB022F06D12046FB
:100A600014F052FB2046002114F064FB95F821108D
:100A70000F4A0F480131C9B207294FF000038CBF5C
:100A800082F8213082F8211085F8223095F8212053
:100A900095F820309A4204D14FF6FF730386BDE8E3
:100AA000F883BDE8F843FFF749BDBDE8F88300BF10
:100AB000843D002038B5094D6C6A4FF480712046A2
:100AC00014F049FB00232B86FFF710FE20464FF45D
:100AD0008071BDE8384014F03ABB00BF843D00206F
:100AE00038B5094D6C6A4FF40071204614F033FBA1
:100AF00000232B86FFF7FAFD20464FF40071BDE876
:100B0000384014F024BB00BF843D002070B53B4C3E
:100B1000FFF73CFD2368C01AB0F5FA6F6CD9384D69
:100B2000FFF734FD2B8E20601BB2142B6C6A5ADD4C
:100B30002B8E1BB2152B1AD120464FF4007114F0E6
:100B40000AFB20464FF4807114F005FB204614F098
:100B5000D1FA2C4B9C4246D12B484FF48061FFF7D1
:100B6000B3FC29484FF40061FFF7BBFC09E02B8E72
:100B70001BB21D2B234B12DC2A8ED20707D59C42B9
:100B800031D121484FF4806114F040FA2BE09C42AF
:100B900029D11D484FF4806114F036FA23E09C42BD
:100BA00006D119484FF4806114F02EFAFFF70EFDBC
:100BB000002620464FF4007185F8206085F82160FA
:100BC00085F8226014F0C3FA20464FF4807114F0C7
:100BD000BEFA204614F089FAEB6A2E869A89013211
:100BE00092B29A8170BD2A8E054B12B2002A03DBA5
:100BF0001A8E013292B21A8670BD00BF1C370020D7
:100C0000843D0020005800400004024010B590F8D8
:100C1000202090F821400132D2B2082A28BF0022B9
:100C2000944209D1C36A1A88013292B21A8003230E
:100C300081F82530002010BD002481F8254072B6CF
:100C400090F8204090F8223040F8241080F82020BE
:100C50000BB9FFF773FC62B6012010BD90F822209B
:100C6000436A2AB9986980F00200C0F340007047D7
:100C70000020704737B504460D46FFF7EFFF002808
:100C800046D040F6B8339D42B8BF1D464FF47A7344
:100C900095FBF3F51F4B646A1A684FF4FA63B2FBD5
:100CA000F3F3B3FBF5F30093009B132BDCBF14238A
:100CB0000093009A40F6FE739A42C4BF40F6FF7359
:100CC0000093154B93FBF5F5A82395FBF3F50195E0
:100CD000019B092BDCBF0A230193019B1E2BC4BF80
:100CE0001F23019372B6204614F004FA20462A21ED
:100CF00014F019FA0099204689B214F01DFA0199EE
:100D0000204689B214F01EFA204614F0EEF962B6BD
:100D100003B030BD5C32002040420F0070B51F4B65
:100D20001F4D204EEB6200244FF6FF72214621201A
:100D30002A866E621C80AC625C809C80DC801C8198
:100D40005C819C81DC811C825C619C6114F084FE6E
:100D5000212014F073FE0121222014F07DFE2220B8
:100D600014F06CFE40F6160014F0C0FDFFF72EFCE8
:100D700040F2164014F0C8FD304614F0B6F9304683
:100D8000214614F0CBF930464FF4807114F0DFF9AE
:100D900028460549BDE87040FFF76CBFAC3600201F
:100DA000843D002000580040801A060010B5114C08
:100DB000042014F01DFE94ED537ADFED0F7A0F4BF3
:100DC000C4F8583167EE277A17EE900A1BF056FCEC
:100DD00000220B4B1BF0F4FA1BF066FFC4F8540121
:100DE000013814F0EDFD14F00FFEBDE8104014F0D2
:100DF00013BE00BFB83D0020A037204D007A030A83
:100E00000000E03F1A4B9A68013270B59A60596849
:100E1000D3F854210A445A605968D3F858219142B2
:100E20001D460AD35B6813489A1A6A602B684FF410
:100E3000004101332B6014F0ECF80D4C0026237BAD
:100E400083B1AA68A3699A420CD3E2691344A361EF
:100E5000074B142202FB063301221A7523690BB1DA
:100E6000F0B298470136102E04F11404E7D170BD9A
:100E7000B83D00200000024070B50446D0F80C01D7
:100E8000C36819061CD503681A0619D5B4F80631CB
:100E9000B4F804219A420CD0234493F8841014F03F
:100EA00091FCB4F80631013303F07F03A4F8063156
:100EB00006E0002384F80831C36823F08003C36090
:100EC000D4F80C01C3689B061AD503689E0617D593
:100ED00003681D0714D40368590711D403689A07DF
:100EE0000ED4B4F8806014F071FC751CB4F8823034
:100EF000A05505F07F05AB4230D0A4F8805070BDFE
:100F0000C3689B060AD503681E0707D514F05EFC6C
:100F1000B4F8243101339BB2A4F82431D4F80C0185
:100F2000C3689D060AD50368590707D514F04EFC1F
:100F3000B4F8263101339BB2A4F82631D4F80C0161
:100F4000C3689A060AD503689B0707D514F03EFCD0
:100F5000B4F8283101339BB2A4F8283170BD10B524
:100F60000446C0F81011D0F80C0114F0EDFBD4F8D1
:100F70000C01C36823F01003C360036923F040032E
:100F80000361C36843F02003C360BDE8104014F060
:100F900014BC022B70B504460D461646D0F80C0161
:100FA00002D14FF4806103E0012B09D14FF4C061FD
:100FB00014F0F1FB072DD4F80C0106D0092105E04F
:100FC000002114F0E8FBD4F80C01082114F0D4FB44
:100FD000022ED4F80C010CBF4FF400510021BDE8E3
:100FE000704014F0D2BB002938B514BF082100218D
:100FF00004461D460AB141F00401D4F80C0114F076
:10100000D0FBD4F80C0115B14FF4407100E0294633
:10101000BDE8384014F0CBBBB0F8042170B5531CC8
:101020000446B0F8060103F07F03984219D0D4F8C3
:101030000C01C66826F08006C66094F808612EB1DF
:10104000224482F88410A4F8043104E0012384F8D7
:10105000083114F0B7FBD4F80C31DA6842F08002A2
:10106000DA6070BD38B5184C184D20460BF010FCF6
:10107000174BC4F80C3140F6120014F037FC284628
:101080004FF4806107220123FFF738FA28464FF416
:10109000006107220023FFF731FA272014F0CEFC6D
:1010A000012120460A460023FFF79DFF2046082124
:1010B00000230122FFF76DFF20464FF41641BDE8E3
:1010C0003840FFF74CBF00BF143F0020000802402B
:1010D000004800400148FFF7CFBE00BF143F00208A
:1010E00010B5174C20460BF0D3FB164BC4F80C314F
:1010F00040F6140014F0FAFB13484FF48051082214
:101100000123FFF7FBF90421082200230F48FFF712
:10111000F5F9352014F092FC012120460A460023FF
:10112000FFF761FF2046082101220023FFF731FF6E
:1011300020464FF46141BDE81040FFF710BF00BFEB
:10114000584000200050004000080240000C0240BF
:101150000148FFF791BE00BF5840002038B540F667
:10116000010014F0C3FB40F6020014F0BFFB2C4C4E
:101170002C4D40F6030014F0B9FB022120460A462C
:101180000123FFF7BBF928464FF4807102220123A7
:10119000FFF7B4F92846802102220123FFF7AEF9B8
:1011A0002046102102220123FFF7A8F920468021C2
:1011B00002220123FFF7A2F920464021A4F5806412
:1011C00002220123FFF79AF9204608210222012377
:1011D000FFF794F92046042102220123FFF78EF93C
:1011E000022120460A460123FFF788F901210B4618
:1011F00020460222FFF782F90B484FF4C8710F22F4
:1012000000F084F809484FF4C871032200F07EF81A
:1012100007484FF4C8710F22BDE8384000F076B897
:1012200000040240000802400004004000080040A2
:10123000000C004038B51D4C1D4D22682846062183
:1012400014F0C4F928466268042114F0BFF9284656
:10125000A268022114F0BAF92846E26805F5806513
:10126000002114F0B3F928462269022114F0AEF9E6
:101270002846626905F58065002114F0A7F9284623
:10128000A269062114F0A2F92846E269042114F0AB
:101290009DF92846226A022114F098F92846626ACC
:1012A0000021BDE8384014F091B900BF203700207C
:1012B0000004004038B504460D4614F055F9124BB1
:1012C0009C4207D0A3F594339C4203D02046294684
:1012D00013F0CCFF2046294614F0C8F820462946D2
:1012E00013F0DEFF20462946062213F0F3FF2046C6
:1012F000294614F0D5F82046294614F003F9204673
:10130000BDE8384014F072B900400140F8B5044619
:101310000F46154613F038FF00210A460B462046BB
:1013200013F07BFF2046FEF74DFF194EB0FBF6F1A0
:101330000139204613F096FF204613F07CFF20462B
:1013400013F07EFFB6FBF7F12046013913F08CFF56
:10135000E80703D520460021FFF7ACFFA90703D516
:1013600020460221FFF7A6FF6A0703D52046042185
:10137000FFF7A0FF2B0703D520460621FFF79AFFB2
:10138000204613F053FF2046BDE8F84013F05DBF40
:1013900040420F0038B540F68E0014F0A7FA40F234
:1013A000016014F0A3FA184D184C40F2016014F0DB
:1013B0009DFA002128460A46202313F032FE002120
:1013C0000A464023204613F02CFE172014F036FB6B
:1013D0002946202014F036FA2146402014F032FA33
:1013E0002020002114F000FA0121402014F0FCF923
:1013F000202014F017FA402014F014FA17200F21BF
:10140000BDE8384014F028BB000402400008024048
:101410000B4B1A6812F0400F10B51C4605D0402047
:1014200014F00AFA074B01225A7023689B0605D56F
:10143000202014F001FA034B01221A7010BD00BFE6
:10144000143C01402438002008B54FF4006014F02B
:101450004DFA0821012200232848FFF74FF84FF0EA
:10146000804013F091FE00210B460A464FF0804069
:1014700013F0D3FE4FF6FF714FF0804013F0F4FEEF
:101480004FF08040FEF79EFE1D49B0FBF1F101399F
:101490004FF0804013F0E6FE4FF080400121002223
:1014A00014F03BF94FF080400121022214F0FCF8C7
:1014B0004FF080400121002214F0CEF800224FF0BE
:1014C0008040012114F0A0F802211C2014F0C4FA7D
:1014D0001C2014F0B3FA4FF08040052113F094FE65
:1014E0004FF08040012114F010F94FF0804013F0CC
:1014F000ACFE044B00221A6008BD00BF000402408D
:10150000808D5B004837002008B5124B1A685207DF
:101510000FD54FF08040042113F07AFE4FF0804049
:1015200014F070F80C4B1B681844BDE8084013F029
:101530007DBB1B68DB070BD5074B1A6802F58032B1
:101540001A604FF080400121BDE8084013F060BEF2
:1015500008BD00BF10000040483700200248034982
:10156000EC2200230CF052BE4C370020843D0020BA
:1015700008B5094B1B68012B0DD9084890F82C3091
:1015800013B10CF067FE01E00CF050FE0348BDE81B
:1015900008400CF075BE08BDB83D00204C37002057
:1015A00070B51C4B1B68012B2DED028B2ED91A4DEB
:1015B00028460CF0B0FE95F82D303BB3174BD5ED17
:1015C0000C7A1C68B8EE678A1E464CB12378012B52
:1015D00004D86268012018EE101A9047A468F4E756
:1015E000D5ED0D7AF468B8EEE78ADFED0D7A88EE76
:1015F000278A4CB12378012B04D86368012018EEA8
:10160000101A9847A468F4E785F82D40BDEC028BCA
:1016100070BD00BFB83D00204C3700203C3B00208F
:101620000000C842F8B50D4C0D4DD4F8583126686D
:101630006268B3FBF5F3B2FBF3F305FB063614F077
:10164000C7F9074614F0CCF9381AD4F85871B7FB2B
:10165000F5F5B0FBF5F03044F8BD00BFB83D002013
:1016600040420F0038B51E4C1E49201DD0220CF000
:1016700034FA0122002384F8502084F854201949B8
:1016800084F851303C2204F1780084F8523084F818
:1016900053300CF01BF91449224601F18405002057
:1016A00000230B500C18043014286361F8D181F822
:1016B00028302C31A942F2D182F8CC30537013700B
:1016C000C2F8B430C2F8B830C2F8BC30C2F8C0308A
:1016D000C2F8C430C2F8C830BDE83840FFF75ABE7F
:1016E00024380020843D0020A0370020F8B5474C66
:1016F00094F8583013B9201D0CF004FA94F8A23075
:1017000013B943480CF0FAF894F8CC203F4B002A68
:101710007AD0D3F8B82093F8CC103E4CD3F8C070F0
:10172000D3F8C860D3F8C450524292FBF1F222665B
:1017300093F8CC10D3F8B42092FBF1F2626693F8E0
:10174000CC10D3F8BC2093F8CCE092FBF1F2A26667
:1017500093F8CC2093F8CC00D3F8D41097FBF2F791
:1017600096FBF0F6D3F8D820D3F8D0006D4295FB65
:10177000FEF5C2EB0212C1EB0111C0EB00103944BF
:1017800016442844102291FBF2F190FBF2F096FBF4
:10179000F2F2C3F8D82062670022C3F8D000C3F881
:1017A000D4102167C3F8B420C3F8B820C3F8BC2014
:1017B000C3F8C020C3F8C420C3F8C82083F8CC20E5
:1017C000E066FFF72FFF0546204611F037F9204667
:1017D00011F055F9104B1C691F464CB12378012BB1
:1017E00004D866680B4A01202946B047A468F4E78C
:1017F0007C694CB12378012B04D86368074A012027
:1018000029469847A468F4E7F8BD00BF24380020B3
:101810009C380020E05300203C3B0020EC5300208B
:101820002DE9F041814E337823B1301D0CF082F95F
:10183000002333707D4C201D0CF094F996F82E3067
:1018400093B3B4F93620D4F8B4301344C4F8B430A8
:10185000B4F93820D4F8B8301344C4F8B830B4F927
:101860003A20D4F8BC301344C4F8BC30B4F930206A
:10187000D4F8C0301344C4F8C030B4F93220D4F8DE
:10188000C4301344C4F8C430B4F93420D4F8C83098
:101890001344C4F8C83094F8CC300133DBB284F878
:1018A000CC30002384F82E307378604C2BB104F1D7
:1018B00078000CF04FF8002363705C4C04F1780062
:1018C0000CF05DF896F8A430002B00F0AC80584F77
:1018D000B4F9A81097F82830B4F9A680B4F9AAC0D2
:1018E000544CDFF85CE15AB2032A47F82210D4BF07
:1018F00001330023A4F1140587F828300FCD0FC45D
:101900002B6844F80C39C8F1000800222068114601
:10191000234653F8045DA84205DAB1F1FF3F02D037
:101920005D600139F5E707EB81010132042A404B84
:10193000886104F10404E9D1DA69CEF8782093F8DB
:1019400054203D4C51B203EB81000329C0F82C8098
:10195000D4BF01320022A4F1140583F854200FCD26
:101960000FC42B6844F80C39002220681146234626
:1019700053F8045DA84205DAB1F1FF3F02D05D6083
:101980000139F5E707EB81010132042A284B48644D
:1019900004F10404E9D19A6CCEF87C2093F88020FD
:1019A000264C51B203EB81000329C0F858C0D4BFC4
:1019B00001320022A4F1140583F880200FCD0FC45A
:1019C0002B6844F80C39002320681A46214651F848
:1019D000045DA84205DAB2F1FF3F02D04D60013A42
:1019E000F5E707EB82020133042B106704F10404CE
:1019F000EAD10F4B12485B6FCEF88030002386F897
:101A0000A43011F064F8FFF70DFE0E4B9C690546FB
:101A10004CB12378012B04D863680B4A0120294676
:101A20009847A468F4E7BDE8F08100BF243800209F
:101A3000A0370020B4370020E03700200C38002009
:101A4000E05300203C3B0020F853002008B5044B35
:101A50001B885B0701D40CF03FFE024808BD00BFA5
:101A600050420020BC42002008B5044BB3F81431AA
:101A70005B0701D40DF00CFB014808BD504200206B
:101A8000804300206D4B2DE9F04F9A6B5B6BD0F8D3
:101A90002090D0F8048002EB820203EB4202684BF4
:101AA00087B093F85B308DF81030664B8DF80F20BF
:101AB0001B68ADF8123000254FF0010B0C4603688F
:101AC0000595132107468DF811B0484698472146E1
:101AD00002464846C047002800F0A980D7F8209069
:101AE0003B68D7F81C80DFF87CA148461321984753
:101AF000214602464846C0473B69386A21461322C0
:101B000098470DF111030193CDF800B0386ABE6813
:101B1000214602222B46B047E72300934A4B01930C
:101B2000386AFE68214602222B46B0474FF004086F
:101B300005AB0193CDF80080386ABE6821460622C5
:101B40002B46B0470DF10F030193CDF800B0386A72
:101B5000BE68214602222B46B047CDF800B0CDF832
:101B600004A0386ABE68214602222B46B0470AF11B
:101B700003030193CDF800B0386ABE682146022203
:101B80002B46B04704AB0193CDF800B0386ABE686D
:101B9000214602222B46B0472C4B0193CDF800B0D2
:101BA000386ABE68214602222B46B047284B019373
:101BB000CDF800B0386ABE68214602222B46B047F5
:101BC000244B0193CDF800B0386ABE68214602224A
:101BD0002B46B047204B0193CDF800B0386ABE6861
:101BE000214602222B46B0471C4B0193CDF800B092
:101BF000BE68386A214602222B46B0474FF00209E0
:101C0000174B0193CDF80090386ABE6821464246D2
:101C10002B46B0470DF112030193CDF800902B46EF
:101C2000BE68386A21464246B0477B6900E0BB691E
:101C3000386A2146984707B0BDE8F08FC8440020B5
:101C4000C4510020B83D0020C0D301081C39002039
:101C50001A3900201B390020203A0020983A002031
:101C6000885100204A5800202DE9F043056A466853
:101C700085B02A234FF001080C46ADF80E300F2135
:101C800003688DF80D80074628469847214602468E
:101C90002846B04700286ED03D6A3B68FE69DFF8F1
:101CA000E89028460F219847214602462846B0472B
:101CB0003B69386A21460F2298470DF10D030193C5
:101CC000CDF80080BD68386A214602220023A8476B
:101CD000A02300932B4B0193FD68386A2146022212
:101CE0000023A84702250095CDF80490386ABE6805
:101CF000214605220023B04709EB05030193009517
:101D0000386ABE68214605220023B04709F1060360
:101D100001930095386ABE68214605220023B0472A
:101D200009F1040301930095386ABE682146052233
:101D30000023B04709F1080301930095386ABE6893
:101D4000214605220023B0470DF10E0301930095B3
:101D5000386ABE68214605220023B047A9F106066D
:101D6000CDF8008001960023BE68386A21462A46D5
:101D7000B0477B6900E0BB69386A2146984705B0E7
:101D8000BDE8F083D2D30108505800202DE9FF416F
:101D9000076AD0F80480036801260D460446122124
:101DA0008DF80F6038469847294602463846C047A6
:101DB00000284FD0276A2368D4F81C8038461221A7
:101DC0009847294602463846C0472369206ADFF80B
:101DD00098802946122298470DF10F03009601932F
:101DE000A668206A294602220023B0478F23009369
:101DF0001C4B01930427E668206A2946022200232F
:101E0000B047206AA6680097294607220023CDF82C
:101E10000480B04708EB07030193206AA668009787
:101E2000294607220023B04708F108030193206ADE
:101E3000A6680097294607220023B04708F10C0640
:101E4000019600230097A668206A29460722B0471A
:101E5000636900E0A369206A2946984704B0BDE899
:101E6000F08100BFEBD30108643C00202DE9FF4165
:101E7000076AD0F80480042301260D468DF80E3041
:101E80000B2103688DF80F600446384698472946B1
:101E900002463846C047002844D09DF80E10276AF5
:101EA0002368D4F81C80B14003313846C9B2984742
:101EB000294602463846C0479DF80E202369206A0D
:101EC000B24003322946D2B298470DF10F03019375
:101ED000A768206A0096294602220023B847692392
:101EE0000093144B0193E768206A294602220023DD
:101EF000B84700220DF10E030193A768206A0096EF
:101F000013462946B8479DF80E30A768206AB340AB
:101F1000DBB20093084B0193294633460522B847AC
:101F2000636900E0A369206A2946984704B0BDE8C8
:101F3000F08100BFFAD30108BE4400202DE9FF4123
:101F4000076AD0F80480082301260D468DF80E306C
:101F5000132103688DF80F600446384698472946D8
:101F600002463846C047002844D09DF80E10276A24
:101F70002368D4F81C80B14003313846C9B2984771
:101F8000294602463846C0479DF80E202369206A3C
:101F9000B24003322946D2B298470DF10F030193A4
:101FA000A768206A0096294602220023B8476523C5
:101FB0000093144B0193E768206A2946022200230C
:101FC000B84700220DF10E030193A768206A00961E
:101FD00013462946B8479DF80E30A768206AB340DB
:101FE000DBB20093084B0193294633460522B847DC
:101FF000636900E0A369206A2946984704B0BDE8F8
:10200000F08100BF04D4010850580020454BDFED9B
:10201000466AD3ED037A2DE9F041FCEEE77A86B00B
:1020200017EE902AADF80A201A88076AD0F80480C3
:1020300007EE102AB8EE477AF2EE047A87EE277A96
:1020400001260D46044610218DF80960D3ED017A72
:102050008DED037AF8EEE77A0368C7EEA67A384684
:10206000CDED047A67EE277ACDED057A98472946BB
:1020700002463846C04700284CD0276A2368D4F867
:102080001C80384610219847294602463846C047EA
:102090002369206A2946102298470DF1090300960A
:1020A0000193A668206A294602220023B04725230F
:1020B00000931E4B0193E668206A29460222002302
:1020C000B047042603AB00960193A768206A29460F
:1020D0000A220023B84704AB00960193A768206A40
:1020E00029460A220023B847022300930DF10A0370
:1020F00032460193206AA76829460023B84705ABFA
:1021000000960193A668206A002329460A22B04758
:10211000636900E0A369206A2946984706B0BDE8D4
:10212000F08100BF8851002000007A4407D40108E4
:102130002DE9F043854E33783D2B84BF0023337067
:10214000337885B004460D463D2B00F23781DFE839
:1021500013F03E0040004A004E00520056005A0064
:102160005C006000640068006A006E007200760027
:1021700078007C0080008400860088008A008C0043
:102180008E0090009200940098009A009C009E009F
:10219000A000A200A400A600A900AB00AE00B10000
:1021A000B400B600B800BA00BC00BE00C000C40055
:1021B000C600CC00CF00D200D500D800DB00DF0085
:1021C000E300E600E900ED00F100F500F900604BE6
:1021D000B9E0604B93F8993007EE903AF8EE677AE1
:1021E000CDED037AECE05B4BD3F89C30E7E0594B44
:1021F000D3F8A030E3E0574BD3F8A430DFE0554BE1
:10220000D3F8A830DBE0544B6AE0534BD3ED037AAC
:1022100068E0514BD3ED097A64E04F4BD3ED067A79
:1022200060E04D4B56E04C4BD3ED047A5AE04A4BFC
:10223000D3ED0A7A56E0484BD3ED077A52E0464B8D
:102240001CE0454BD3ED057A4CE0434BD3ED0B7AC4
:1022500048E0414BD3ED087A44E0404B40E03F4B2F
:1022600038E03E4B0AE03E4B3AE03D4B32E03C4B1F
:1022700004E03C4B34E03B4B2CE03A4BD3ED027A8C
:1022800030E0394B2CE0394B2AE0394B28E0394B10
:102290002CE0394B57E0394B22E0394B53E0394BB6
:1022A000DB6A8CE0384B4EE0364B1B6A87E0354BDF
:1022B0005B6A84E0334B9B6A81E0344B10E0344B23
:1022C0000EE0344B0CE0344B0AE0344B08E0344B66
:1022D00006E0334BD3ED017A04E0324B06E0324B9B
:1022E000D3ED007AF8EEE77A7AE7304B1B6866E0C8
:1022F0002F4B1B7B70E72E4B5B7B6DE72C4BDB89F9
:102300006AE72B4B1B8A67E7294BD3ED017A65E718
:10231000274BD3ED027A61E7264B9B694FE0254BB3
:102320005B694CE0234B93F8223055E7214B93F83F
:10233000213051E71F4B93F824304DE71D4B93F8A4
:10234000233049E71C4B1B7846E700BF14390020B7
:10235000603C0020884D0020743C0020503D00204F
:102360002C3D0020683D0020D43A0020C83A0020CF
:10237000903A0020B03A0020B43A0020D03A002031
:10238000F8390020303A0020D4390020143A0020D7
:102390001C3A0020DC390020103A0020D8390020F7
:1023A000283A0020083C0020D03B0020D83B0020E9
:1023B00024420020AC410020303B00200023039346
:1023C000276A2368D4F804904FF0010807218DF89C
:1023D0000B8038469847294602463846C8470028A9
:1023E00039D0276A2368D4F81C90384607219847CB
:1023F000294602463846C8472369206A29460722EB
:1024000098470DF10B030193A768206ACDF800806F
:10241000294602220023B8471F230093134B019340
:10242000E768206A294602220023B847A768206A85
:10243000CDF800802946022200230196B8470423E4
:10244000009303AB0193A768206A002329460A2260
:10245000B847636900E0A369206A29469847337842
:102460000133337005B0BDE8F08300BF0ED401081E
:102470002DE9FF41076AD0F80480102301260D469C
:102480008DF80E30132103688DF80F60044638462E
:102490009847294602463846C047002842D09DF852
:1024A0000E10276A2368D4F81C8003313846C9B25D
:1024B0009847294602463846C0479DF80E202369B2
:1024C000206A03322946D2B298470DF10F030193D7
:1024D000A768206A0096294602220023B8474FF0D9
:1024E0000208144B0193206AE768CDF80080294662
:1024F00042460023B84700220DF10E030193206AE3
:10250000A768009613462946B8479DF80E300093F9
:10251000094B0193A768206A334629464246B847CB
:10252000636900E0A369206A2946984704B0BDE8C2
:10253000F08100BF17D401081DD401082DE9FF4127
:10254000076AD0F804801D2301260D468DF80E3051
:10255000242103688DF80F600446384698472946C1
:1025600002463846C047002849D09DF80E10276A19
:102570002368D4F81C8007313846C9B298472946E9
:1025800002463846C0479DF80E202369206A07326C
:102590002946D2B298470DF10F030193A768206A2C
:1025A0000096294602220023B847184B0193E7689A
:1025B000206A0096294602220023B847042300938C
:1025C000134B0193A768206A294606220023B847C7
:1025D00000220DF10E030193A768206A00961346AE
:1025E0002946B8479DF80E3000930A4B0193A7681F
:1025F000206A334629463246B847636900E0A3693A
:10260000206A2946984704B0BDE8F0812ED401081D
:102610000000002040D4010808B5054890F8A43116
:102620009B0703D400F5D27009F02EFC014808BDC9
:1026300050420020084400202DE9F04F7B4B1B68DE
:102640008DB05B420C460B930646FFF7FFF9074639
:10265000FFF7FCF98146FFF7F9F98046FFF704FA26
:102660000390FFF701FA8246FFF7FEF90790FFF7A4
:10267000D3FF0890FFF7D0FF0990FFF7CDFF7368F5
:102680000693336A3268049301253C2183468DF812
:102690002B5018469047049B024621461846069B3D
:1026A0009847002800F0BB80F3690693336A3268CC
:1026B000049318463C219047049B02462146184645
:1026C000069B98473369306A21463C2298470DF1B2
:1026D0002B0300950193B568306A2146022200233E
:1026E000A84793230093524B0193F568306A214623
:1026F00002220023A84704258DE8A000306AB768AD
:10270000214607220023B84709EB05030193306AED
:10271000B7680095214607220023B84708F108034F
:102720000193306AB7680095214607220023B84715
:10273000039F0197306AB76800952146072200235E
:10274000B8470AEB05030193B768306A0095214644
:1027500007220023B847079F306A009507F1080356
:102760000193B768DFF8D880214607220023B847D5
:10277000089F0197306AB768009521460722002319
:10278000B847099F306A00957B190193B7682146C5
:1027900007220023B8470BF108030193B768306A9A
:1027A0000095214607220023B847306AB768009594
:1027B000214607220023CDF80480B847A8F104077A
:1027C0000197306AB7680095214607220023B84771
:1027D0000BAB0193B768306A0095214607220023AE
:1027E000B847144B0193B768306A00952146072219
:1027F0000023B847104B0193B768306A0095214613
:1028000007220023B847022300930C4B0193B768BB
:10281000306A002321462A46B847736900E0B3694D
:10282000306A214698470DB0BDE8F08FD03A0020BD
:102830005ED40108243A0020703C002018390020A2
:102840002C3A00200000000070B52F4B2F4C1A7856
:102850001E46002A40D02368002B4ED02C4BDB684C
:10286000B3F5FA7F35DC2B4DB5F814315A0601D497
:102870000CF0C4FCD5ED567AFDEEE77A17EE900A1F
:102880000028B8BF404219F0E7FE1DA3D3E900239A
:102890001AF0BAF9E8B11F4B93F870311B0701D455
:1028A0000CF0A8FDD5ED657AFDEEE77A17EE900AFB
:1028B0000028B8BF404219F0CFFE00224FF08043FD
:1028C0001AF0A2F928B12368013B2360ABB9337039
:1028D00070BD1423236070BD216813290DD860B129
:1028E0000B48C068B0F5FA7F06DD4A1C142A226046
:1028F00003D101221A7070BD226070BDAFF3008059
:102900009A9999999999C93F1A3900200839002054
:10291000643C0020504200200C4B1A780C4B32B122
:102920000C4A92F8A42112B108B1012200E0002261
:102930001A701A78084B002A14BF0021012119705F
:10294000064B18BF03221A70704700BF1C390020C5
:102950001B39002050420020163900200D3900207C
:1029600038B5304B93F8A431002B2F4B1A7814BF95
:1029700004460024A2421D4653D0102C29D8DFE87B
:1029800004F00F0925191B281B1B191B23232325C2
:10299000171F1D0005F044FC022001F0AFFC25E0EC
:1029A000224B00201870224B186001F0A7FC25E094
:1029B000052006E001200AE0022008E0072000E0F0
:1029C000062001F09BFC20E0032000E0042001F041
:1029D00095FC102C24D8DFE804F011092018181AEF
:1029E0001A1C1E1E181C1E2018181800032002F0A6
:1029F00079FB104B4FF440221A6011E00020FFF7E2
:102A00008BFF0D4B0020D86008E0012006E002207B
:102A100004E0032002E0042000E0052002F062FB55
:102A20002C7038BD504200201C3900201A3900207B
:102A300008390020CC3A0020643C0020314B324A57
:102A400010B500241C70314B1C7001231370304AE8
:102A50001470304A1460304A1370304A1470304A8F
:102A60001470304A1480304A1370304B1C70304B55
:102A70001C60304B1C7004F0C1FA01F0D1FB02F075
:102A8000D1FA05F049F905F093FE05F0D5FF05F000
:102A90005BFB2046284CFFF763FF20462749284A66
:102AA0000EF00AFB20462749274A0EF005FB204678
:102AB0002649274A0EF000FB20462649264A0EF0FA
:102AC000FBFA20462549264A0EF0F6FA204625490B
:102AD000254A0EF0F1FA20462449254A0EF0ECFA78
:102AE00020462449244A0EF0E7FA20462349244A86
:102AF0000EF0E2FA20462349234ABDE810400EF0CA
:102B0000DBBA00BF1C390020163900201B39002019
:102B10001A390020083900200C3900201F39002004
:102B20001E390020183900201D39002015390020D9
:102B3000103900200D390020503200202ED4010819
:102B40003D25000817D4010871240008C0D30108EE
:102B5000851A000807D401080D2000085ED401087A
:102B600039260008EBD301088D1D00080ED401089A
:102B700031210008FAD301086D1E000804D40108B1
:102B80003D1F0008D2D30108691C000838B5374B37
:102B90001A88013292B21F2A01D81A8003E000225B
:102BA0001A8004F0A7FC324D324C2B78A3B1237865
:102BB0000D2B11D1304B1B7873B1304B93ED007A54
:102BC0002F4BD3ED007AB4EEE77AF1EE10FACCBFDA
:102BD00001200220FFF7C4FE2378022B0AD1294BE3
:102BE0001A88013292B21F2A0AD900221A8004F0F0
:102BF00035FB0BE0244B1A88013292B21F2A01D810
:102C00001A8003E000221A8004F0F6FC2378012BDE
:102C100003D1287808B9FFF7A3FE287818B91B4B11
:102C200018701B4B187023781A4C43B91A4B1A882A
:102C300022805A8862809A88A280DB8813E002F0A2
:102C4000A3FA287801F074FC2A78144B02B99A6030
:102C5000134A127802B9DA601A6822805A686280D0
:102C60009A68DB68A280E38038BD00BF203900206D
:102C70001A3900201C390020503C0020043C002060
:102C80000800002004390020063900201F390020E8
:102C90001E390020284F002084E20108643C0020F7
:102CA0001B39002038B5584C584DB4F90E30B3F5E7
:102CB000965F04DD564B18780D2804D009E013F513
:102CC000965F0ADC07E0534B93F85B30032B0AD185
:102CD00004E0042802D1042003E009202B78022B11
:102CE00001D0FFF73DFE4C4B93F8A431002B7DD073
:102CF0002B784A4A002B72D0494B197805296ED897
:102D0000DFE801F0031822283E58464800211170E0
:102D10000160B4F90A10B1F5F07F60DA3A498989A7
:102D200001F50E51203189B244F24070814256D9EA
:102D3000012153E03B48002111700168013127292E
:102D400001603BD9022149E0012111703549282059
:102D500008601EE001211170324928200860B4F992
:102D60000A10B1F5F07F3ADA2749898901F50E5149
:102D7000203189B244F24070814230D904212DE0E3
:102D800028480121117001680139016009B9052144
:102D900024E0B4F90A10B1F5F07F09DA1A498989FB
:102DA00001F50E51203189B244F24070814216D8AB
:102DB000032113E01B48002111700160B4F90A10CF
:102DC000B1F5F07F09DA1049898901F50E512031FA
:102DD00089B244F24070814201D800211970127802
:102DE000114BD2F1010238BF00221A702B78013B3F
:102DF000012B07D902F054F90C4B1878BDE8384084
:102E000001F0ACBA38BD00BF4A5800201C39002080
:102E10000C390020C4510020504200201B390020F2
:102E20000D39002010390020163900201A390020F1
:102E30002DE9F043314C85B0D4F82861D4F808313D
:102E4000D4F80C91012580460F468DF80F500721CC
:102E5000304698472A4902463046C847002843D0A2
:102E6000D4F82861D4F80831D4F8249130460721E9
:102E70009847234902463046C847D4F81831D4F859
:102E800028011F49072298470DF10F030095019370
:102E9000D4F81061D4F82801194902220023B04760
:102EA0001F230093174B0193D4F828011449D4F839
:102EB000146102220023B0478DE82001D4F82801D4
:102EC000D4F810510E4902220023A84704238DE8AC
:102ED0008800D4F81051D4F82801094900230A22A7
:102EE000A847D4F81C3101E0D4F82031D4F82801E7
:102EF0000349984705B0BDE8F08300BF404F00206C
:102F0000844100200ED40108F0B5A44B00221A80A1
:102F1000A34B5A78023A87B00E2A00F2D583DFE835
:102F200012F09603D30356008E03D303D3030F008E
:102F3000D303D303D303D303D303D303D30337027E
:102F4000984CD4F82861D4F80831D4F80C710125D4
:102F500002218DF80C50304698479349024630467E
:102F6000B84768B3D4F82861D4F80831D4F824718C
:102F70000221304698478C4902463046B847D4F87B
:102F80001831D4F8280188490222984703AB0193ED
:102F90000095D4F81051D4F8280183490222002367
:102FA000A84703230093814B0193D4F81451D4F81C
:102FB00028017D4900230222A847D4F81C3101E0F2
:102FC000D4F82031D4F82801774998477CE3DB789E
:102FD000734A012B40F078839179D07993788DF8FA
:102FE0000B30090441EA00615079127942EA00226B
:102FF0000A4307EE902A03923D2B00F21A83DFE882
:1030000013F03E0044004C0054005D0065006D006C
:10301000710077007D00830087008D009300990088
:103020009D00A300A900AF00B500BB00C100C50012
:10303000C900E100E500E900ED00F100F500FE0047
:10304000000106010A0118011F0125012C013301AD
:103050003A013E0142014C015001540158015C010A
:103060006C01700174017B0182018901900194015E
:1030700098019C01A001A801B001B801C001FCEEBB
:10308000E77A4B4B17EE902A80E1FCEEE77A494B4A
:1030900017EE902A83F89920CBE2464CC4ED277AAC
:1030A0000CF02EFFD4F89C3006E0424CC4ED287A98
:1030B0000CF026FFD4F8A0300393BAE23D4CC4EDE7
:1030C000297A0DF07BF9D4F8A430F5E7394CC4ED3A
:1030D0002A7A0DF073F9D4F8A830EDE7FDEEE77A1F
:1030E000354B40E0FDEEE77A334BC3ED037AA0E2C7
:1030F000FDEEE77A304BC3ED097A9AE2FDEEE77A0E
:103100002D4BC3ED067A94E2FDEEE77A2A4B30E0D0
:10311000FDEEE77A284BC3ED047A8AE2FDEEE77A0A
:10312000254BC3ED0A7A84E2FDEEE77A224BC3ED2C
:10313000077A7EE2FDEEE77A1F4B20E0FDEEE77AAC
:103140001D4BC3ED057A74E2FDEEE77A1A4BC3ED31
:103150000B7A6EE2FDEEE77A174BC3ED087A68E270
:10316000FDEEE77A154BC3ED007A62E2FDEEE77AF9
:10317000124BC3ED017A5CE2FDEEE77A0F4BC3ED33
:10318000027A56E2FDEEE77A0D4BECE7FDEEE77AC8
:103190000B4BEEE7FDEEE77A094BF0E7A83900208C
:1031A00028390020404F0020844100206CD40108C1
:1031B000603C0020884D0020743C0020503D0020E1
:1031C0002C3D0020FDEEE77AA34BCCE7FDEEE77A3D
:1031D000A14BCEE7FDEEE77A9F4BD0E7FDEEE77A15
:1031E0009E4BC0E7FDEEE77A9D4BBCE79D4BFDEEA5
:1031F000E77A0022C3ED007A9B4B1A606DE19B4B8E
:1032000070E0FCEEE77A9A4B17EE902ABEE0FDEEF6
:10321000E77A984BA7E7F5EE407AF1EE10FA0CBF8B
:1032200000230123944A07EE103A1370F8EE477A10
:10323000FDE117EE900A01F087FA904BDB6A3BE75D
:10324000FCEEE77A8E4B17EE902A9FE017EE900A7D
:1032500001F09CFA894B1B6A2EE717EE900A01F0E9
:10326000C9FA864B5B6A27E717EE900A01F0FEFA6F
:10327000824B9B6A20E7FDEEE77A824B73E7FDEE17
:10328000E77A814B6FE7814BFDEEE77A0022C3EDD1
:10329000007A7F4B1A605A601FE1FDEEE77A7D4BA2
:1032A00061E7FDEEE77A7C4B5DE7FDEEE77A7B4B6D
:1032B00059E7FDEEE77A794B5BE7794BC3ED007A8E
:1032C000784B93ED387A784B77EEC77A9FED777A23
:1032D00067EE877AFDEEE77A45E7FDEEE77A744B15
:1032E00041E7744BC3ED007AA3E1FCEEE77A724B41
:1032F00017EE902A1A739CE1FCEEE77A6E4B17EEFC
:10330000902A5A7395E1FCEEE77A6B4B17EE902A00
:10331000DA818EE1FCEEE77A674B17EE902A1A828B
:1033200087E1FCEEE77A644B23E7FCEEE77A624B39
:1033300025E7624BC3ED067A7BE1604BC3ED057A6E
:1033400077E1FCEEE77A5D4B17EE902A83F82220B6
:103350006FE1FCEEE77A594B17EE902A83F82120B3
:1033600067E1FCEEE77A554B17EE902A83F82420AC
:103370005FE1FCEEE77A514B17EE902A83F82320A9
:1033800057E1FCEEE77A4E4B17EE902A1A7050E1A7
:10339000DB78012B40F098814A4B9B788DF80B30FD
:1033A0003D2B00F24281DFE813F03E004000440074
:1033B00048004C005000540095009B009F00A30063
:1033C000A500A900AD00B100B300B700BB00BF006D
:1033D000C100C300C500C700C900CB00CD00CF00AD
:1033E000D300D500D700D900DB00DD00DF00E1000D
:1033F000E500E700EB00EF00F300F500F700F9004F
:10340000FB00FD00FF000301050109010D01100192
:103410001301160119011D012101250129012D01A9
:10342000310135013901284BF9E0284B93F89930E7
:10343000F6E0264BD3ED277AF9E0244BD3ED287A3A
:10344000F5E0224BD3ED297AF1E0204BD3ED2A7A37
:10345000EDE01F4BAFE000BF683D0020D43A0020F4
:10346000C83A0020903A0020A83A0020B03A002044
:10347000B43A0020D03A0020F8390020303A002039
:10348000D4390020143A00201C3A0020DC390020F6
:10349000AC390020103A0020D8390020283A00200A
:1034A000083C002050420020E03B00200000804308
:1034B000D03B0020D83B002024420020AC4100201B
:1034C000303B002028390020603C0020884D00203F
:1034D000743C00207D4BD3ED037AF8EEE77AA6E04A
:1034E0007A4BD3ED097AF8E7784BD3ED067AF4E717
:1034F000764B5AE0754BD3ED047AEEE7734BD3ED80
:103500000A7AEAE7714BD3ED077AE6E76F4B1CE0E6
:103510006E4BD3ED057AE0E76C4BD3ED0B7ADCE72D
:103520006A4BD3ED087AD8E7694B44E0684B3CE03E
:10353000674B0AE0674B3EE0664B36E0654B04E0C4
:10354000654B38E0644B30E0634BD3ED027AC4E75F
:10355000624B30E0624B2EE0624B2CE0624B2EE07F
:10356000624B5CE0624B26E0624B58E0624BD3ED6D
:103570000B7A5CE0614B52E05F4BD3ED087A56E08A
:103580005D4BD3ED097A52E05B4BD3ED0A7A4EE006
:103590005B4B10E05B4B0EE05B4B0CE05B4B0AE0DF
:1035A0005B4B08E05B4B06E05A4BD3ED017A94E7A6
:1035B000594B04E0594BD3ED007A8EE7584BD3EDCD
:1035C000007A34E0574B1B7B2AE0564B5B7B27E0AD
:1035D000544BDB8924E0534B1B8A21E0514BD3ED44
:1035E000017A1FE04F4BD3ED027A1BE04E4BD3ED37
:1035F000067A1CE04C4BD3ED057A18E04A4B93F861
:1036000022300DE0484B93F8213009E0464B93F807
:10361000243005E0444B93F8233001E0434B1B7802
:1036200007EE903AF8EE677A01E0DFED417ACDEDF2
:10363000037A0DF10B0003A9FFF7FAFB44E0DB78F6
:10364000012B41D13B4B987810F010FE3CE0DA782A
:10365000012A39D1384A92F85C1029B992F8E4105D
:1036600011B992F8F81029B1118801F0C6010031A2
:1036700018BF012141B39979DC795D799878090403
:1036800041EA04611C7944EA052421430391997AB3
:10369000DC7A5D7A090441EA04611C7A44EA052473
:1036A00021430491997BDC7B090441EA04615C7B42
:1036B0001B7B43EA04231943936D126BCB1A13440B
:1036C00003A9059310F0DAFF07B0F0BD743C0020A9
:1036D000503D00202C3D0020683D0020D43A0020C1
:1036E000C83A0020903A0020B03A0020B43A0020B6
:1036F000D03A0020F8390020303A0020D439002098
:10370000143A00201C3A0020DC390020103A002036
:10371000D8390020283A0020083C0020D03B002067
:10372000D83B002024420020AC410020303B002048
:1037300000000000283900205042002008B5044B4A
:103740001B889B0701D40AF08BFE024808BD00BF0E
:1037500050420020B042002008B5044BB3F81431A9
:103760009B0701D40BF0F0FB014808BD504200203C
:103770007443002073B5FFF7E1FF114D03682B6020
:10378000FFF7DCFF43686B60FFF7E6FF0D4E036851
:103790003360FFF7E1FF436873600B4B00241C604C
:1037A0005C6093E8030096E80C008DE8030095E860
:1037B000030001F08DF8054B1C605C6002B070BD29
:1037C000C0390020C8390020FC390020AC39002065
:1037D000F8B5214C2378032B05D1204B93E8030047
:1037E00001F022F904E01E4B93E8030001F098F881
:1037F0001C4B1D481B781D4E1D4DD3B11D498B68B8
:103800000F69D1F814C09B003360CB689B007360D4
:103810000B68BA0C8F6942EA8C329B00D1F81CC04D
:1038200002602B60BA0C4B6842EA8C3242609B000B
:1038300007E00B4A336011685268016042607360B0
:103840002B606B602378032B04D1054B02681A6050
:1038500042685A60F8BD00BF203A0020F0390020CD
:10386000283A0020F8390020C0390020C83900204B
:10387000FC390020303A00202DE9F84FA84CA94F20
:1038800025682DED028B0646FFF758FF0368646834
:10389000ED1A3D60FFF752FFD7F8009043684846A5
:1038A000C3EB040818F0D8FE00229F4B04460D46D7
:1038B00019F0AAF958B99D4B20462946002219F063
:1038C000C1F900280CBF4B464FF4805300E0984BE1
:1038D0003B60404618F0C0FE0022934B04460D4664
:1038E00019F092F958B9914B20462946002219F057
:1038F000A9F900280CBF43464FF4805300E08C4BDD
:10390000DFF880827B60D8F80040DFF87C92FFF718
:1039100023FF0368E41AC9F80040D8F80440FFF711
:103920001BFFD9F800B043685846C3EB040A18F0EF
:1039300093FE00227F4B04460D4619F065F950B9FD
:103940002046294600227C4B19F07CF9002818BF3C
:103950004FF4000B01E0DFF8E4B1C9F800B05046C5
:1039600018F07AFE0022734B04460D4619F04CF90C
:1039700058B9714B20462946002219F063F90028F6
:103980000CBF53464FF4000300E06C4B6C4A7C685C
:1039900010686C4AC9F8043011683A689B104FEA05
:1039A000AB0B0BFB01FB59434243C913604301EBD3
:1039B000A01C654B6549664C08681B68D8F8041064
:1039C0006568594345430CEB614101EB2521D8F86B
:1039D00000504FEAEB3B6B430BEBA21202EB63454B
:1039E00023685C4C434305EB232340F28A775A4813
:1039F000BB42A8BF3B46B942A8BF39468342ACBFD1
:103A00001D4605468142B8BF014625606160534BA3
:103A1000F6B15348076858680CFB070C186802FB9E
:103A200007025048504F8242A8BF02468445B8BFA3
:103A30006046BA42B8BF3A46B842B8BF38461A6084
:103A400001EB204105EB224258602260616001E0F9
:103A50001E605E60454B1B78002B46D0002E44D084
:103A6000434A4448444B0068D26819689FED438A32
:103A7000424392130A2000FB01220B2092FBF0F23A
:103A800020681A604FF4165641F62115704390FBDA
:103A9000F5F007EE102A07EE900AF8EEC78AF8EE66
:103AA000E77A18EE901A17EE900A13F0C1F907EEB4
:103AB000100A606867EE087A7043FDEEE77A90FBC3
:103AC000F5F0C4ED007A07EE900AF8EEE77A18EE0A
:103AD000901A17EE900A13F0ABF907EE100A27EED2
:103AE000088ABDEEC88A84ED018A2368BDEC028B8A
:103AF000B3F5496FB4BF1A464FF44962204B9A425E
:103B0000ACBF226023606268B2F5496FA8BF4FF472
:103B100049629A42ACBF62606360BDE8F88F00BF43
:103B2000C0390020E03900200000B0C00000B040E3
:103B300000F0FFFF000060C100006041000080FF56
:103B4000143A00201C3A0020103A0020D8390020F6
:103B5000FC390020E839002076F8FFFFAC3900205E
:103B6000DC39002000008A07000076F8D4390020F4
:103B7000643C0020943A0020043A00200000804574
:103B800070F3FFFFC8390020083A00202DE9F04FFC
:103B9000076AD0F80480036887B001260D46044602
:103BA0002A218DF81760384698472946024638463C
:103BB000C047002800F09480276A2368D4F81C804E
:103BC000DFF83091DFF830A1DFF830B138462A2134
:103BD0009847294602463846C0472369206ADFF8DD
:103BE000208129462A2298470DF117030096019358
:103BF000A668206A294602220023B0479523009335
:103C00003B4B0193E668206A294602220023B04715
:103C100004260096A768206ACDF80490294607225A
:103C20000023B8470096A768206ACDF8048029468B
:103C300007220023B8470096A768206ACDF804A0A1
:103C4000294607220023B8470096A768206ACDF8C6
:103C500004B0294607220023B847DFF8A8C0CDF8F2
:103C600004C0CDF80CC00096206AA7682946072238
:103C70000023B84709EB060300960193206AA76862
:103C8000294607220023B84708EB06030096019354
:103C9000206AA768294607220023B8470AEB0603D3
:103CA00000960193206AA768294607220023B84797
:103CB0000BEB060300960193206AA76829460722AA
:103CC0000023B847DDF80CC000960CEB0603019307
:103CD000A668206A002329460722B047636900E0EE
:103CE000A369206A2946984707B0BDE8F08F00BF56
:103CF00071D40108283A0020F0390020C83900208A
:103D0000C0390020FC3900202DE9FF470C4606464B
:103D1000FFF714FD8046FFF71FFD794B93F87031D4
:103D20009B07814601D40BF009FB376A3368D6F84C
:103D300004A0012546218DF80F50384698472146AA
:103D400002463846D047002800F0D280376A3368F0
:103D5000D6F81CA0384646219847214602463846E8
:103D6000D0473369306ADFF8A4A12146462298473C
:103D70000DF10F0300950193B568306A21460222C8
:103D80000023A847922300935E4B0193F568306AA5
:103D9000214602220023A84704250095306AB7680F
:103DA000CDF804A0214607220023B8470AEB0503FB
:103DB00000950193B768306A214607220023B8476F
:103DC0008DE82001B768306A214607220023B847F2
:103DD00008EB050300950193B768306ADFF830817E
:103DE000214607220023B8478DE82002B768306AD1
:103DF000214607220023B84709EB050300950193EC
:103E0000B768306A214607220023B8470095CDF8ED
:103E10000480306AB768214607220023B84708EBC0
:103E200005070095DFF8EC800197306AB7682146F6
:103E300007220023B8470095CDF80480306AB768A0
:103E4000214607220023B84708EB05070095DFF855
:103E5000C8800197306AB768214607220023B84717
:103E60000095CDF80480306AB76821460722002308
:103E7000B84708EB05070095DFF8A0800197306A86
:103E8000B768214607220023B8470095CDF8048083
:103E9000306AB768214607220023B84708EB0507B8
:103EA00000950197306AB768DFF8748021460722D1
:103EB0000023B8470095306AB768CDF804802146E2
:103EC00007220023B84708EB050700950197306AE1
:103ED000B768214607220023B8470B4B0095019392
:103EE000B568306A002321460722A847736900E0BD
:103EF000B369306A2146984704B0BDE8F08700BF37
:103F00005042002084D40108243A0020283A00209E
:103F1000C4430020E0390020083A0020AC390020DA
:103F2000E83900202DE9F043044685B00D46FFF73F
:103F300005FC276A2368D4F8049001261A218046DC
:103F40008DF80F6038469847294602463846C847DC
:103F5000002862D0276A2368D4F81C9038461A21BA
:103F60009847294602463846C8472369206ADFF841
:103F7000BC9029461A2298470DF10F030096019331
:103F8000A668206A294602220023B04790230093A6
:103F9000254B0193E668206A294602220023B04798
:103FA00004260096CDF80490206AA76829460722C7
:103FB0000023B84709EB060300960193A768206A1F
:103FC000DFF86C90294607220023B8470096206A44
:103FD000A768CDF80490294607220023B84709EBCB
:103FE000060300960193A768206A2946072200234A
:103FF000B8478DE84001206AA768294607220023B8
:10400000B84708EB060300960193A668206A0023D0
:1040100029460722B047636900E0A369206A294660
:10402000984705B0BDE8F0838FD40108283A0020F6
:10403000C039002008B5054890F8A4319B0703D487
:1040400000F5D27007F020FF014808BD5042002063
:10405000084400202DE9F04F85B00C460746FFF7D5
:10406000E9FF8046FFF7E6FF8346FFF7E3FF3E6A7E
:104070003B68D7F804900125242182468DF80F5023
:1040800030469847214602463046C847002800F08F
:104090008D803E6A3B68D7F81C90304624219847B3
:1040A000214602463046C8473B69386A434E21469E
:1040B000242298470DF10F0301930095BD68386ADB
:1040C000214602220023A847962300933C4B0193EC
:1040D0004FF00209FD68386A214602220023A847F2
:1040E000CDF800900196386ABD682146052200236C
:1040F000A84706EB0903CDF800900193386ABD6824
:104100002146052200230636A847CDF800900196E7
:10411000BD68386ADFF8AC90214605220023A84725
:1041200004250095CDF80490386ABE682146072220
:104130000023B04709EB050300950193386ABE6878
:10414000214607220023B04709F108030095019397
:10415000386ABE68214607220023B04709F10C03E4
:1041600000950193BE68386A214607220023B047B4
:104170008DE820012146BE68386A07220023B04737
:104180000BEB050300950193386ABE6821460722B0
:104190000023B0470AF10803019300950023BD688E
:1041A000386A21460722A8477B6900E0BB69386A64
:1041B0002146984705B0BDE8F08F00BF5058002059
:1041C0009ED40108643C002010B5FFF7B7FA074CF5
:1041D00003682360FFF7B2FA43686360FFF7CAFA27
:1041E000FFF728FF024B82689A6010BD283A002032
:1041F000B4390020074A08B5074B516812685A6065
:104200001960FFF7B7FAFFF715FF044B82681A60D1
:1042100008BD00BF203C0020283A0020D03B0020F1
:104220001F4A002310B513701E4A1F4C0121117044
:104230001E4A13701E4A136053601E4A1360536077
:104240001D4A1360536093601C4A13601C4A64212A
:1042500011601C490A220A601B49782008601B492A
:104260000A601B4A13601B4A13601B4A136000F06C
:104270004DFA204619491A4A0CF01EFF20461949EA
:10428000194A0CF019FF20461849194A0CF014FF7E
:1042900020461849184ABDE810400CF00DBF00BF79
:1042A000203A0020F839002050320020D439002074
:1042B000283A0020AC390020B4390020243A0020EC
:1042C000143A0020DC3900201C3A0020D8390020A4
:1042D000103A0020D0390020183A00208FD401086D
:1042E000253F000884D40108093D0008B4D4010822
:1042F0008D3B00089ED401085540000838B5144B8A
:104300001A78824204461D4621D007281CD0012875
:104310000FD0104A002313600F4A1360831E052B31
:1043200014D8DFE803F0110C0F03091104F058FA58
:104330000CE004F00BFC09E004F0E4F804E0FFF703
:1043400043FF01E0FFF756FF03F04CFF2C7038BD30
:10435000203A0020D0390020183A00202DE9F74FEC
:104360006E4B1B78013B0446062B00F2D380DFE83E
:1043700003F009181BC1040E110003B0BDE8F04F93
:1043800004F01EBA03B0BDE8F04F04F095BB012164
:10439000002201E00021012203B0BDE8F04F03F04C
:1043A00013BF00210A46F7E700225D482146134665
:1043B00004F0B2F8002C00F099805A4BB3F90810C1
:1043C000B3F906604942B1F5F07F4FEAE6770A4655
:1043D0004FEAE17304DDB1F5F07243F1FF330DE014
:1043E00051484FF0FF31824273EB010404DA12F5B9
:1043F000F07243F1000301E0002200234FF4F0705B
:104400000021B04271EB070904DAB6F5F07647F106
:10441000FF370DE044484FF0FF31864277EB01044F
:1044200004DA16F5F07647F1000701E000260027D0
:10443000190541EA1231100500234FF4165218F005
:10444000A3FC0D46390504464FF41652002341EAF9
:104450001631300518F098FC0F460646FFF7EAFDC6
:104460008368C3F10009484607F040FF804648468C
:1044700007F06EFF424601464FEAE8734FEAE07BE1
:10448000CDE9002301FB05FCA1FB042304FB0BCCBD
:10449000DDF804902548634408FB07FC06FB09CCC3
:1044A000A8FB068918EB0208E14449EB03094FEA2F
:1044B000983242EA89420260DDE90023524263EB0E
:1044C0004303554304FB0353A2FB04451D4401FB76
:1044D00007F306FB0B33A1FB0667A4191F4445EB4A
:1044E0000705A20B42EA8542426013E00F4B1C60B5
:1044F0005C600FE00B4B1A783AB909482146134625
:1045000003B0BDE8F04F04F007B8054B00221A6075
:104510005A609A6003B0BDE8F08F00BF203A0020D7
:10452000B43900204A58002020FEFFFFF039002057
:1045300030B5304B1B78013B85B00446062B56D86E
:10454000DFE803F00752121B04520A0004F050F98E
:104550004DE004F00FFB4AE0274B1A68B2F5C83F64
:1045600042DA40321A603FE008B9FFF72DFEFFF74C
:104570002FF9224B224D9B682EE008B9FFF73AFE37
:10458000204B1B78032B0DD11F4B1B6801931F4B36
:104590001B680293FFF74EFD8368039301A803F0A5
:1045A0004BFE21E01A4A1B4B5168126819605A6091
:1045B000FFF70EF9184B1B6843F24322934203DDC9
:1045C000A3F5C943073BF7E7144A934203DA03F51F
:1045D000C9430733F8E70A4D20462B60FFF74CF933
:1045E0000F48296803F032FE204603F04FFE05B065
:1045F00030BD00BF203A0020D0390020B43900205F
:10460000243A0020F43B00201C3C00203C3C0020CD
:10461000203C0020283A0020D03B0020BDCDFFFFE9
:10462000E8390020094B19685A6C914202DC524269
:10463000914200DA1A6059689B6C044A994202DC84
:104640005B42994200DA5360704700BF303A002065
:10465000134BDA6B99685042814204DA1A68986009
:10466000002A08DA05E0914205DD9A601A68002AFE
:1046700001DD00221A60D9681B6C094A5842814248
:1046800004DA5368D060002B08DA05E0994205DDB2
:10469000D3605368002B01DD00235360704700BFD7
:1046A000303A0020436801685B42494207EE103A05
:1046B00007EE901AB8EEC77AF8EEE77A10B517EE63
:1046C000901A17EE100A12F0B3FBDFED0E7A0E4CC3
:1046D00007EE100A67EE277AFDEEE77A17EE900AEA
:1046E000C4ED147A07F002FE6065206D07F030FE1D
:1046F000636D0028B8BF4042002BB8BF5B42A06585
:10470000636510BD00008045303A00200B4B0C4A19
:104710005A620C4A9A6240F2F9321A63AF225A6323
:104720004FF07C521A624FF400329A634FF080428D
:10473000DA624FF48072DA64704700BF303A0020CA
:10474000F0AD953F9A99593F07EE900AB0EEE77A9F
:10475000DFED0B7A0B4BB4EEE77AF1EE10FA48BFBF
:10476000F0EE477A9FED087AC3ED0B7A27EE877A51
:1047700017EE900ABDEEC77A83ED137A704700BF3B
:104780000000C842303A00200000004307EE900AC3
:10479000B0EE007AF4EEC77AF1EE10FA38B5114CAB
:1047A00002DD84ED087A0AE09FED0F7AF4EEC77A15
:1047B000F1EE10FA48BFF0EE477AC4ED087A256AA8
:1047C000284617F05BFF02460B460020074918F009
:1047D000D3F80022064B17F0A5FF18F03DFAA063AE
:1047E000284638BD303A00200AD7233C0000F03F6D
:1047F0000000F04007EE900AB1EE047AF4EEC77ABA
:10480000F1EE10FA154B02DD83ED097A0AE09FED17
:10481000147AF4EEC77AF1EE10FA48BFF0EE477A58
:10482000C3ED097AD3ED097A9FED0E7A67EEA76A98
:1048300017EE900A26EE877ADFED0B6ABDEEC77A97
:1048400083ED0D7A93ED0A7A27EE877A27EE267AA2
:10485000BDEEC77A83ED0C7A704700BF303A002076
:10486000CDCCCC3D000000430000804407EE900A10
:104870009FED137A134BF4EEC77AF1EE10FA02DDD6
:1048800083ED0A7A0AE09FED107AF4EEC77AF1EE32
:1048900010FA48BFF0EE477AC3ED0A7AD3ED0A7AF0
:1048A00093ED097ADFED096A27EE877A17EE900A11
:1048B00027EE267ABDEEC77A83ED0C7A704700BFEB
:1048C0009A99993F303A00203333333F00008044B7
:1048D00030B585B004AC04E90300039C029DE117E8
:1048E0008DE80C008B0443EA9433A2040B4CC4E91A
:1048F0000623009B9B10A360019B9B10E360089B19
:104900009B10E9172360099B890441EA95319B10AC
:10491000AD0461612561636005B030BD303A0020AF
:10492000F0B53F4E85B0D6E90445B2683768F36804
:104930008DE80300D6E90601A41802EB070C77689E
:10494000C6F808C045EBE275C0184FEA944241EB47
:10495000E37103EB070E42EA8532C6E90445336B87
:10496000009DC6F80CE06FF001075F43551B019BEB
:104970000295820C42EA8132D31A726B039352423F
:10498000C6E906014FEA6E2E02FB05F04FEA6C21E4
:104990005A437943C01107FB0EF7D21100EBA12156
:1049A00002EBA7273160776034468DB983B940F2B6
:1049B000F243F06CB364736417F04EFE16A3D3E9B0
:1049C000002317F0AFFE18F047F93064F06314E0ED
:1049D00002A8FFF767FEA16D4FF4E06303FB01F24D
:1049E00092136264626D53439B13A364E36C594357
:1049F000534389139B13E1632364E36B9B02E363DB
:104A0000236C9B022364FFF70DFEFFF721FE05B028
:104A1000F0BD00BFAFF3008039B4C876BE9FE63F5B
:104A2000303A0020AFF300807FB5374CD4E904233F
:104A30008DE80300A068E1682668121843EBE07374
:104A4000C4E90423D4E90623521843EBE173C4E913
:104A50000623636819449DE80C000644A06BA66019
:104A6000E160A6EBA206A1EBA30176124912404237
:104A7000029603914643414336140914266061604F
:104A80006AB963B9E06C17F0E7FD1DA3D3E9002311
:104A900017F048FE18F0E0F82064E0630BE0684689
:104AA000FFF700FEE36CA26D5A439213E263626D5E
:104AB00053439B132364E26B134B9202E263226C19
:104AC00092022264029A32B9039A22B940F2F24267
:104AD0009A645A640CE002A8FFF7E4FDA26D4FF45B
:104AE000E0635A4392136264626D53439B13A36461
:104AF000FFF798FDFFF7ACFD04B070BDAFF3008089
:104B000039B4C876BE9FE63F303A0020AFF300804C
:104B100008B5044B1B889B0701D409F0A1FC02488F
:104B200008BD00BF50420020B042002008B5044B31
:104B3000B3F814319B0701D40AF006FA014808BD06
:104B40005042002074430020634A2DE9F8430CCA08
:104B5000940C44EA8334614BDFF8E8911C60604BAD
:104B6000604D1B689B00C9F800305F4B1B689B00C1
:104B70002B608046FFF7CCFF8368E41A204617F0CD
:104B80006BFD0022594B06460F4618F05BF850B9F2
:104B9000574B30463946002218F036F8554B00285E
:104BA00018BF1C4601E04FF42064D9F80060FFF7FD
:104BB000BDFF8368C3EB0609484617F04DFD002290
:104BC0004D4B06460F4618F03DF850B94B4B30465A
:104BD0003946002218F018F8494B002818BF9946AA
:104BE00001E04FF4A009474EB8F1000F0CD0336834
:104BF000454A2344934201DD326007E0434A934231
:104C0000ACBF3360326001E0C6F80080404B1B78D7
:104C10001BB1404B1868801117E03F4BDFED3F7A26
:104C200093ED007A67EE277A17EE900A17F026FDCB
:104C300002460B4626A1D1E9000117F09DFE002295
:104C4000374B17F06FFD18F007F82A68354B120242
:104C50009B1A93FBF0F0344B1A68344B800390FBA3
:104C6000F2F0B0F5075F02DD4FF4075204E00028D0
:104C700001DB186001E000221A602D4A1B681268EF
:104C8000524254432B4A1268524209FB02F92A4A03
:104C90004FEA294909EBE419146832686442544325
:104CA000264A09EB244414601C44B4F5165F244BD7
:104CB00002DD4FF4165205E0002C02DB1C60BDE85B
:104CC000F88300221A60BDE8F88300BFAFF30080CC
:104CD0001F85EB51B89E2340E83A0020A03A0020FF
:104CE000F03A0020BC3A0020F43A00200000A44032
:104CF0000000A4C000F6FFFF00005441000054C1B2
:104D00000000B0FFA83A002080841E00807BE1FFF5
:104D1000B43A0020E03A0020B03A002000001646E5
:104D200000001041703D2700943A0020A43A002072
:104D3000D43A0020C83A0020903A0020B83A002027
:104D4000C43A00209C3A00202DE9F043044685B087
:104D50000D46FFF7DDFE276A2368D4F8049001268C
:104D6000122180468DF80F60384698472946024642
:104D70003846C84700284BD0276A2368D4F81C90CF
:104D8000384612219847294602463846C8472369C3
:104D9000206A2946122298470DF10F0300960193CD
:104DA000A668206A294602220023B047D523009333
:104DB0001B4B0193E668206A294602220023B04774
:104DC0000426184B00960193A768206A29460722FB
:104DD0000023B84708F1080300960193A768206AEA
:104DE000294607220023B8470F4B00960193206AFB
:104DF000A768294607220023B8470C4B0096019369
:104E0000A668206A002329460722B047636900E0AC
:104E1000A369206A2946984705B0BDE8F08300BF22
:104E2000C3D40108D03A0020A03A00209C3A0020C8
:104E30002DE9F04F85B00D460446FFF769FE804628
:104E4000FFF774FE684B93F870319B07834601D4DB
:104E50000AF074FAD4F820902368D4F804A001264C
:104E60003E218DF80F60484698472946024648463D
:104E7000D047002800F0B180D4F820902368D4F8FF
:104E80001CA03E2148469847294602464846D0473E
:104E90002369206A29463E2298470DF10F030096A8
:104EA0000193A668206A294602220023B047912375
:104EB00000934E4B0193E668206A294602220023A4
:104EC000B04704264A4B00960193206AA7682946FA
:104ED00007220023B847474B00960193206AA76832
:104EE000294607220023B84708F1080300960193DA
:104EF000206AA768294607220023B8470BF1080754
:104F000000960197206AA768294607220023B84720
:104F1000394B00960193A768206A2946072200238F
:104F2000B847364B00960193A768206A29460722A6
:104F30000023B847324B00960193A768206A2946A0
:104F400007220023B8472F4B00960193A768206AD9
:104F5000294607220023B8472B4B00960193A768E8
:104F6000206A294607220023B847284B0096019360
:104F7000A768206A294607220023B847244B0096D9
:104F80000193A768206A294607220023B847214BCE
:104F900000960193A768206A294607220023B84794
:104FA0001D4B00960193A768206A2946072200231B
:104FB000B8471A4B00960193206AA7682946072232
:104FC0000023B847164B00960193A668206A002379
:104FD00029460722B047636900E0A369206A294691
:104FE000984705B0BDE8F08F50420020CDD40108AD
:104FF000D03A0020CC3A0020CC430020A03A002038
:105000009C3A0020BC3A0020E03A0020D83A002028
:10501000DC3A0020A83A0020A43A0020B83A002048
:10502000C43A0020114A1249002310B513707822A7
:105030000A601049104C0A60104A28211160104A79
:105040001360104B104A1A60104B01221A7000F0C6
:105050007DF920460E490F4A0CF02EF820460E49E5
:105060000E4ABDE810400CF027B800BF983A002067
:10507000D43A0020C83A002050320020903A002054
:10508000A83A0020B03A0020CDCCCC3EB43A002063
:10509000CDD40108314E0008C3D40108494D0008A1
:1050A0000D4BB3F90A200D4BC2F59651B1F5707F47
:1050B0001A600B4B02DDC2F5706205E011F5707FDE
:1050C000B4BFC2F5B45200221A601A6840F29911B6
:1050D0004A431A60704700BF4A580020AC3A00208B
:1050E000C03A0020F8B5214B1A78824205461E4688
:1050F0003BD0831E032B37D8DFE803F01919021CBD
:10510000FFF706FD1A4B82681A601A4B00241C60D8
:10511000FFF7FEFC22468068214600F0A9F9FFF760
:10512000F7FC154B82681A60144B1C601AE0144B94
:1051300000221A600F4B00241C60FFF7E9FC87680F
:10514000FFF7F4FC034622469968384600F090F9D0
:10515000FFF7DEFC084B82681A60FFF7E7FC074B9D
:1051600082681A60074B1C603570F8BD983A0020C1
:10517000D03A0020A83A0020A03A00209C3A002013
:10518000CC3A0020BC3A0020F8B55E4D95F8A43129
:105190005A07044603D405F5D27006F0BBFDD5F8D6
:1051A000E43142F282129342B8BF1346564A13606A
:1051B0008CB1564AD66873439E1395F870319B079D
:1051C00001D40AF0BBF8524BD5F87C011A6831467D
:1051D00000F0CAF801E000F0B9F84E4B1B78013B33
:1051E000042B00F28E80DFE803F0030A1C263B004C
:1051F000FFF78EFC484B82681A60484B0EE0484B24
:105200001D68484B1D60FFF783FC034628469968DC
:1052100000F0C6F92046FFF797FC434B1A683B4B5A
:105220006EE0404B1D68FFF773FC03462846996803
:1052300000F0B6F906E03B4B00221A60364B1868C6
:1052400000F02EF92046FFF77FFC384B364A1978DC
:105250002E4B19B93149126809684BE012684FE0CA
:10526000334B314E1D78022D0AD1324B18682A4B30
:10527000404218602B4B00221A6000F011F912E036
:10528000012D14D1FFF744FC234B82681A602A4B8E
:105290001D68244B6D421D60FFF73AFC034628460B
:1052A000996800F07DF92046FFF74EFC1BE0D5B968
:1052B000FFF72EFC184C83682360FFF737FC194F6B
:1052C0008168206839602A4600F0D2F81B4B2268BA
:1052D0001A600F4B3A681A60194B1D60194B1D601C
:1052E000194B1B683360114B1A78084B3AB90B4ABB
:1052F000116832689142D4BFD960DA60F8BD326873
:10530000DA60F8BD50420020943A0020643C00204E
:105310009C3A0020983A0020D03A0020AC3A002075
:10532000C03A0020CC3A0020C43A00204A5800205D
:105330002C3C0020E03B00200C3C0020A03A002048
:10534000BC3A0020A83A00205C3C0020044B4DF6FB
:105350003B721A60034B46F266621A60704700BFE8
:10536000E03A0020D83A0020A1F57073B3F5F05F61
:105370002DE9F74F82460C46914664D800F58053DC
:10538000B3F5005F5FD8344D344F286817F064F9E7
:105390002FA3D3E9002317F013F817F05DFC06469E
:1053A000CAF51C503D304FEA640A0AEB80302C4BA2
:1053B000D7F80080B9F1000F4FEA690C90FBF4F4C4
:1053C000B8BFCCF1000C1C603046CDF804C017F01B
:1053D00043F90022234B16F0F3FFDDF804C0C8EBBD
:1053E000040A04466046A9460D4617F035F9002226
:1053F0001D4B17F097F902460B462046294616F03A
:10540000DFFF17F029FC4FEA063B9BFBF0F006FBA1
:1054100000F3A6EB23360AFB00FB46F26663134A51
:105420009E42D4BFC9F80060C9F8003008EB2B33A6
:10543000934201DD3A6006E045F649129342D8BF37
:1054400045F64A133B6003B0BDE8F08FAFF3008030
:105450002D431CEBE2362A40D83A0020E03A0020E7
:10546000DC3A00200000694100005940D94E01009B
:1054700030B5C517064BAC0444EA9034800418607C
:105480005C60044B89101960034B92101A6030BDA8
:10549000E83A0020F03A0020F43A00200000000032
:1054A000374A38492DE9F047374EDFF8EC8033684A
:1054B000D8F80070D2E90045E41845EBE375C2E97D
:1054C0000045A20C42EA8532801A1F4440F2851A38
:1054D0007B120AFB00FA59434FEAEA1A0AEBA12AA7
:1054E0003760504617F0B8F821A3D3E900230446EB
:1054F0000D4617F0A7FBB146464610B14FF4FB73BB
:105500000BE0204629461CA3D3E9002317F07CFBBF
:1055100010B9C6F800A001E01C4B3360384617F004
:105520009BF800221A4B04460D4617F077FB0746FE
:1055300050B1184BC9F800303368002B14DA164B01
:1055400000221A60BDE8F087204629460022134B4E
:1055500017F06EFB40B14FF4C023C9F80030336838
:10556000002BC4BF0C4B1F60BDE8F087AFF3008079
:105570003208AC1C5A647F403208AC1C5A647FC0AD
:10558000E83A002022F4FFFFF03A00200AFEFFFF75
:10559000000018C10000FAFFF43A00200000184192
:1055A0002DE9F04F504E514C514D27682B688946DC
:1055B0008046D6E90001C01941EBE7711F4485B070
:1055C000C6E90001276017F07FF88B464FEAE971C2
:1055D0008B0443EA99334FEA8942824619461046C2
:1055E00017F072F80022434BCDE9020116F0E8FEF5
:1055F000CDE90001DDE900235046594617F022FBB2
:10560000A94610B1DDE9000110E00022394BDDE9C7
:10561000020116F0D3FE04460D4650465946224676
:105620002B4617F0F1FA28B12046294617F0C8FB9F
:10563000C6E90001A7EBA8084FEA6828C8EB88383C
:105640004FEA88463614304617F006F822A3D3E90D
:10565000002304460D4617F0F5FA10B14FF4FB7322
:105660000BE0204629461EA3D3E9002317F0CCFA0D
:1056700010B9C9F8006002E01F4BC9F80030384685
:1056800016F0EAFF00221D4B04460D4617F0C6FA3D
:10569000064650B1154A1A4B1360D9F80030002B5A
:1056A00014DA134B00221A6010E02046294600222B
:1056B000144B17F0BDFA48B10C4A4FF4C0231360E5
:1056C000D9F80030002BC4BF094B1E6005B0BDE8FF
:1056D000F08F00BFAFF300803208AC1C5A647F40EB
:1056E0003208AC1C5A647FC0E83A0020F03A00202F
:1056F000F43A00200000A0410AFEFFFF000018C19C
:105700000000FAFF000018412DE98748DFF86883A0
:10571000DFF85CA3DFF83C93BB4FBC4EBC4DBD4CE7
:1057200006F03EFE0BF0ECFC08F084FE09F0E8FE0B
:1057300009F0F2FE0FF096F8FBF710FF0DF0F0F80D
:105740000AF080F809F0CAFF0DF0ECF90CF07CF9D2
:10575000FDF774F907F09EFD022388F8003007F08A
:1057600001FC07F0FFFA0FF0A1FA0BF0E5FB0021B6
:105770004FF06C5006F064FF00218AF800004FF0F3
:105780006C5006F05DFF002189F80000A24806F089
:1057900057FF00213870A14806F052FF00213070F9
:1057A0009F4806F04DFF002128704FF06C5006F026
:1057B00047FF002120709B4806F042FF9A4B18706B
:1057C0009A4890F8842012F0080FA946A2469B46FA
:1057D00002D1843006F012FC954B1C6A002C00F0BC
:1057E000FA802378012B03D86368924901209847F7
:1057F000A468F3E700241C71FBF778FFFDF7C6F9F6
:105800008D4B8E4A1878214609F0A0FE8C490B6812
:10581000A342D4BF1320472058434FF4707290FB2B
:10582000F2F000F2A640B0F57A7FC0F2E08040F2DC
:105830006C739842A8BF184680B2824A824B10808F
:1058400000B2186048680028D4BF1324472460437E
:105850004FF4707490FBF4F000F2A640B0F57A7F3C
:10586000C0F2C88040F26C74A042A8BF204680B24B
:10587000508000B2586088680028D4BF13244724A1
:1058800060434FF4707490FBF4F000F2A640B0F562
:105890007A7FC0F2B28040F26C74A042A8BF20466A
:1058A00080B2C9689080002900B29860D4BF1320EC
:1058B000472041434FF4707091FBF0F101F2A64193
:1058C000B1F57A7FC0F29C8040F26C708142A8BF33
:1058D000014689B2D18009B2D960FBF7ABFC5B4BC2
:1058E0001B78002B40F0CA80594B1A88013292B2C3
:1058F000092A88BF00221A80564A1378142202FB14
:10590000035210321379002B40F0CA803E4A1378BC
:10591000142202FB035310331A791AB100221A71B0
:105920000EF0B6FF394A1378142202FB03531033EA
:105930001A79002A40F0F48099F80030142202FB12
:10594000035310331A791AB100221A710BF0E8FBD5
:105950009AF80030142202FB035310331A79002AFC
:1059600040F00A819BF80030142202FB03551035E9
:105970002B791BB100232B71FBF7FAFD364D06F096
:105980003FFDD5F83831D5F840019847002841F05F
:105990003B80324C23781BB1FDF7B6FA002323700D
:1059A0002F4B1B7813B12F480FF038F82E4CFBF714
:1059B00037FFFBF7F5FDD4F83831D4F840019847AC
:1059C00025462A4C002841F0C08023780BB10CF00A
:1059D00061FB07F0E9FA264A264D1378142202FBF0
:1059E000035310331A79002A7FF404AF84E74FF48D
:1059F0007A7022E74FF47A703AE74FF47A7050E702
:105A00004FF47A7166E700BF003B0020A03B002006
:105A1000313B0020763B00208988883CCDCC4C3D32
:105A2000CDCCCC3D0AD7A33C203B0020E053002046
:105A30003C3B0020A85400201B390020284F0020A8
:105A4000C8440020BE440020203700201A3900201E
:105A50002C3B0020FA3A0020584000202239002038
:105A60001D390020A52C0008143F0020C85200203A
:105A7000A13B0020B83D0020303B0020924B1A880B
:105A8000013292B2B2F5007F08D300221A808F4B08
:105A90001A8801321A808E4B1A8801321A8023E745
:105AA0008C4F8D4E002313713A780132D2B2322AD4
:105AB00088BF3B70337898BF3A700133DBB21C0665
:105AC000864C48BF00233370238801339BB2B3F563
:105AD000007F28BF0023238098F80030022B04D1D8
